{
  "contractName": "EnergyTrade",
  "abi": [
    {
      "inputs": [],
      "stateMutability": "nonpayable",
      "type": "constructor"
    },
    {
      "anonymous": false,
      "inputs": [
        {
          "indexed": true,
          "internalType": "uint256",
          "name": "tradeId",
          "type": "uint256"
        },
        {
          "indexed": false,
          "internalType": "bool",
          "name": "favorSeller",
          "type": "bool"
        }
      ],
      "name": "DisputeResolved",
      "type": "event"
    },
    {
      "anonymous": false,
      "inputs": [
        {
          "indexed": true,
          "internalType": "uint256",
          "name": "tradeId",
          "type": "uint256"
        },
        {
          "indexed": false,
          "internalType": "address",
          "name": "buyer",
          "type": "address"
        }
      ],
      "name": "TradeAccepted",
      "type": "event"
    },
    {
      "anonymous": false,
      "inputs": [
        {
          "indexed": true,
          "internalType": "uint256",
          "name": "tradeId",
          "type": "uint256"
        }
      ],
      "name": "TradeCancelled",
      "type": "event"
    },
    {
      "anonymous": false,
      "inputs": [
        {
          "indexed": true,
          "internalType": "uint256",
          "name": "tradeId",
          "type": "uint256"
        }
      ],
      "name": "TradeCompleted",
      "type": "event"
    },
    {
      "anonymous": false,
      "inputs": [
        {
          "indexed": true,
          "internalType": "uint256",
          "name": "tradeId",
          "type": "uint256"
        },
        {
          "indexed": false,
          "internalType": "address",
          "name": "seller",
          "type": "address"
        },
        {
          "indexed": false,
          "internalType": "uint256",
          "name": "energyAmount",
          "type": "uint256"
        },
        {
          "indexed": false,
          "internalType": "uint256",
          "name": "price",
          "type": "uint256"
        }
      ],
      "name": "TradeCreated",
      "type": "event"
    },
    {
      "anonymous": false,
      "inputs": [
        {
          "indexed": true,
          "internalType": "uint256",
          "name": "tradeId",
          "type": "uint256"
        }
      ],
      "name": "TradeDisputed",
      "type": "event"
    },
    {
      "inputs": [],
      "name": "owner",
      "outputs": [
        {
          "internalType": "address",
          "name": "",
          "type": "address"
        }
      ],
      "stateMutability": "view",
      "type": "function",
      "constant": true
    },
    {
      "inputs": [
        {
          "internalType": "address",
          "name": "",
          "type": "address"
        }
      ],
      "name": "reputation",
      "outputs": [
        {
          "internalType": "uint256",
          "name": "",
          "type": "uint256"
        }
      ],
      "stateMutability": "view",
      "type": "function",
      "constant": true
    },
    {
      "inputs": [
        {
          "internalType": "uint256",
          "name": "",
          "type": "uint256"
        }
      ],
      "name": "trades",
      "outputs": [
        {
          "internalType": "address",
          "name": "seller",
          "type": "address"
        },
        {
          "internalType": "address",
          "name": "buyer",
          "type": "address"
        },
        {
          "internalType": "uint256",
          "name": "energyAmount",
          "type": "uint256"
        },
        {
          "internalType": "uint256",
          "name": "price",
          "type": "uint256"
        },
        {
          "internalType": "bool",
          "name": "isAccepted",
          "type": "bool"
        },
        {
          "internalType": "bool",
          "name": "isCompleted",
          "type": "bool"
        },
        {
          "internalType": "bool",
          "name": "isCancelled",
          "type": "bool"
        },
        {
          "internalType": "bool",
          "name": "isDisputed",
          "type": "bool"
        }
      ],
      "stateMutability": "view",
      "type": "function",
      "constant": true
    },
    {
      "inputs": [
        {
          "internalType": "uint256",
          "name": "_energyAmount",
          "type": "uint256"
        },
        {
          "internalType": "uint256",
          "name": "_price",
          "type": "uint256"
        }
      ],
      "name": "createTrade",
      "outputs": [],
      "stateMutability": "nonpayable",
      "type": "function"
    },
    {
      "inputs": [
        {
          "internalType": "uint256",
          "name": "_tradeId",
          "type": "uint256"
        }
      ],
      "name": "acceptTrade",
      "outputs": [],
      "stateMutability": "payable",
      "type": "function",
      "payable": true
    },
    {
      "inputs": [
        {
          "internalType": "uint256",
          "name": "_tradeId",
          "type": "uint256"
        }
      ],
      "name": "completeTrade",
      "outputs": [],
      "stateMutability": "nonpayable",
      "type": "function"
    },
    {
      "inputs": [
        {
          "internalType": "uint256",
          "name": "_tradeId",
          "type": "uint256"
        }
      ],
      "name": "cancelTrade",
      "outputs": [],
      "stateMutability": "nonpayable",
      "type": "function"
    },
    {
      "inputs": [
        {
          "internalType": "uint256",
          "name": "_tradeId",
          "type": "uint256"
        }
      ],
      "name": "raiseDispute",
      "outputs": [],
      "stateMutability": "nonpayable",
      "type": "function"
    },
    {
      "inputs": [
        {
          "internalType": "uint256",
          "name": "_tradeId",
          "type": "uint256"
        },
        {
          "internalType": "bool",
          "name": "favorSeller",
          "type": "bool"
        }
      ],
      "name": "resolveDispute",
      "outputs": [],
      "stateMutability": "nonpayable",
      "type": "function"
    },
    {
      "inputs": [],
      "name": "getAllTrades",
      "outputs": [
        {
          "components": [
            {
              "internalType": "address",
              "name": "seller",
              "type": "address"
            },
            {
              "internalType": "address",
              "name": "buyer",
              "type": "address"
            },
            {
              "internalType": "uint256",
              "name": "energyAmount",
              "type": "uint256"
            },
            {
              "internalType": "uint256",
              "name": "price",
              "type": "uint256"
            },
            {
              "internalType": "bool",
              "name": "isAccepted",
              "type": "bool"
            },
            {
              "internalType": "bool",
              "name": "isCompleted",
              "type": "bool"
            },
            {
              "internalType": "bool",
              "name": "isCancelled",
              "type": "bool"
            },
            {
              "internalType": "bool",
              "name": "isDisputed",
              "type": "bool"
            }
          ],
          "internalType": "struct EnergyTrade.Trade[]",
          "name": "",
          "type": "tuple[]"
        }
      ],
      "stateMutability": "view",
      "type": "function",
      "constant": true
    },
    {
      "inputs": [],
      "name": "tradeCount",
      "outputs": [
        {
          "internalType": "uint256",
          "name": "",
          "type": "uint256"
        }
      ],
      "stateMutability": "view",
      "type": "function",
      "constant": true
    }
  ],
  "bytecode": "0x608060405234801561001057600080fd5b50336000806101000a81548173ffffffffffffffffffffffffffffffffffffffff021916908373ffffffffffffffffffffffffffffffffffffffff160217905550611ee9806100606000396000f3fe60806040526004361061009c5760003560e01c8063a5c1674e11610064578063a5c1674e1461018b578063ad221551146101b4578063b9f79451146101dd578063bd55022a1461021a578063ce99c0ce14610245578063ecb9fec3146102705761009c565b806309ec6cc7146100a15780631e6c598e146100ca57806334b25ee21461010e5780638da5cb5b1461013757806396463fc614610162575b600080fd5b3480156100ad57600080fd5b506100c860048036038101906100c3919061147c565b61028c565b005b3480156100d657600080fd5b506100f160048036038101906100ec919061147c565b61040a565b604051610105989796959493929190611a83565b60405180910390f35b34801561011a57600080fd5b50610135600480360381019061013091906114a5565b6104d6565b005b34801561014357600080fd5b5061014c6108a6565b6040516101599190611a68565b60405180910390f35b34801561016e57600080fd5b50610189600480360381019061018491906114e1565b6108ca565b005b34801561019757600080fd5b506101b260048036038101906101ad919061147c565b610adc565b005b3480156101c057600080fd5b506101db60048036038101906101d6919061147c565b610cce565b005b3480156101e957600080fd5b5061020460048036038101906101ff9190611453565b610ffe565b6040516102119190611d15565b60405180910390f35b34801561022657600080fd5b5061022f611016565b60405161023c9190611d15565b60405180910390f35b34801561025157600080fd5b5061025a611023565b6040516102679190611b38565b60405180910390f35b61028a6004803603810190610285919061147c565b6111af565b005b6000600182815481106102c8577f4e487b7100000000000000000000000000000000000000000000000000000000600052603260045260246000fd5b906000526020600020906005020190508060040160009054906101000a900460ff161561032a576040517f08c379a000000000000000000000000000000000000000000000000000000000815260040161032190611c35565b60405180910390fd5b8060000160009054906101000a900473ffffffffffffffffffffffffffffffffffffffff1673ffffffffffffffffffffffffffffffffffffffff163373ffffffffffffffffffffffffffffffffffffffff16146103bc576040517f08c379a00000000000000000000000000000000000000000000000000000000081526004016103b390611c15565b60405180910390fd5b60018160040160026101000a81548160ff021916908315150217905550817f4e02dcf02d8510f6c8a6878a3c54ae6e2bfbf552df29221d7a1eed173a6b1ae760405160405180910390a25050565b6001818154811061041a57600080fd5b90600052602060002090600502016000915090508060000160009054906101000a900473ffffffffffffffffffffffffffffffffffffffff16908060010160009054906101000a900473ffffffffffffffffffffffffffffffffffffffff16908060020154908060030154908060040160009054906101000a900460ff16908060040160019054906101000a900460ff16908060040160029054906101000a900460ff16908060040160039054906101000a900460ff16905088565b60008054906101000a900473ffffffffffffffffffffffffffffffffffffffff1673ffffffffffffffffffffffffffffffffffffffff163373ffffffffffffffffffffffffffffffffffffffff1614610564576040517f08c379a000000000000000000000000000000000000000000000000000000000815260040161055b90611c95565b60405180910390fd5b6000600183815481106105a0577f4e487b7100000000000000000000000000000000000000000000000000000000600052603260045260246000fd5b906000526020600020906005020190508060040160039054906101000a900460ff16610601576040517f08c379a00000000000000000000000000000000000000000000000000000000081526004016105f890611cf5565b60405180910390fd5b8060040160019054906101000a900460ff1615610653576040517f08c379a000000000000000000000000000000000000000000000000000000000815260040161064a90611c75565b60405180910390fd5b60008160040160036101000a81548160ff02191690831515021790555060018160040160016101000a81548160ff0219169083151502179055508115610780578060000160009054906101000a900473ffffffffffffffffffffffffffffffffffffffff1673ffffffffffffffffffffffffffffffffffffffff166108fc82600301549081150290604051600060405180830381858888f19350505050158015610701573d6000803e3d6000fd5b50600260008260000160009054906101000a900473ffffffffffffffffffffffffffffffffffffffff1673ffffffffffffffffffffffffffffffffffffffff1673ffffffffffffffffffffffffffffffffffffffff168152602001908152602001600020600081548092919061077690611df6565b9190505550610869565b8060010160009054906101000a900473ffffffffffffffffffffffffffffffffffffffff1673ffffffffffffffffffffffffffffffffffffffff166108fc82600301549081150290604051600060405180830381858888f193505050501580156107ee573d6000803e3d6000fd5b50600260008260010160009054906101000a900473ffffffffffffffffffffffffffffffffffffffff1673ffffffffffffffffffffffffffffffffffffffff1673ffffffffffffffffffffffffffffffffffffffff168152602001908152602001600020600081548092919061086390611df6565b91905055505b827f5a87909bff68caaaaf0b3fd9c74eeccc928832f879315e5c6fb7a73612f26c0c836040516108999190611b5a565b60405180910390a2505050565b60008054906101000a900473ffffffffffffffffffffffffffffffffffffffff1681565b60016040518061010001604052803373ffffffffffffffffffffffffffffffffffffffff168152602001600073ffffffffffffffffffffffffffffffffffffffff16815260200184815260200183815260200160001515815260200160001515815260200160001515815260200160001515815250908060018154018082558091505060019003906000526020600020906005020160009091909190915060008201518160000160006101000a81548173ffffffffffffffffffffffffffffffffffffffff021916908373ffffffffffffffffffffffffffffffffffffffff16021790555060208201518160010160006101000a81548173ffffffffffffffffffffffffffffffffffffffff021916908373ffffffffffffffffffffffffffffffffffffffff160217905550604082015181600201556060820151816003015560808201518160040160006101000a81548160ff02191690831515021790555060a08201518160040160016101000a81548160ff02191690831515021790555060c08201518160040160026101000a81548160ff02191690831515021790555060e08201518160040160036101000a81548160ff021916908315150217905550505060018080549050610a9d9190611d7a565b7fd0e9aa5556e03c447575bd31d7a883384c075015de0184785193f025fbfd5451338484604051610ad093929190611b01565b60405180910390a25050565b600060018281548110610b18577f4e487b7100000000000000000000000000000000000000000000000000000000600052603260045260246000fd5b906000526020600020906005020190508060040160009054906101000a900460ff168015610b5557508060040160019054906101000a900460ff16155b610b94576040517f08c379a0000000000000000000000000000000000000000000000000000000008152600401610b8b90611cb5565b60405180910390fd5b8060000160009054906101000a900473ffffffffffffffffffffffffffffffffffffffff1673ffffffffffffffffffffffffffffffffffffffff163373ffffffffffffffffffffffffffffffffffffffff161480610c4157508060010160009054906101000a900473ffffffffffffffffffffffffffffffffffffffff1673ffffffffffffffffffffffffffffffffffffffff163373ffffffffffffffffffffffffffffffffffffffff16145b610c80576040517f08c379a0000000000000000000000000000000000000000000000000000000008152600401610c7790611b95565b60405180910390fd5b60018160040160036101000a81548160ff021916908315150217905550817f995328816eb12e50ec2691560298922cd9ead6191e59874ef2ef6ca8c766d72560405160405180910390a25050565b600060018281548110610d0a577f4e487b7100000000000000000000000000000000000000000000000000000000600052603260045260246000fd5b906000526020600020906005020190508060040160009054906101000a900460ff16610d6b576040517f08c379a0000000000000000000000000000000000000000000000000000000008152600401610d6290611c55565b60405180910390fd5b8060040160019054906101000a900460ff1615610dbd576040517f08c379a0000000000000000000000000000000000000000000000000000000008152600401610db490611c75565b60405180910390fd5b8060010160009054906101000a900473ffffffffffffffffffffffffffffffffffffffff1673ffffffffffffffffffffffffffffffffffffffff163373ffffffffffffffffffffffffffffffffffffffff1614610e4f576040517f08c379a0000000000000000000000000000000000000000000000000000000008152600401610e4690611cd5565b60405180910390fd5b60018160040160016101000a81548160ff0219169083151502179055508060000160009054906101000a900473ffffffffffffffffffffffffffffffffffffffff1673ffffffffffffffffffffffffffffffffffffffff166108fc82600301549081150290604051600060405180830381858888f19350505050158015610eda573d6000803e3d6000fd5b50600260008260000160009054906101000a900473ffffffffffffffffffffffffffffffffffffffff1673ffffffffffffffffffffffffffffffffffffffff1673ffffffffffffffffffffffffffffffffffffffff1681526020019081526020016000206000815480929190610f4f90611df6565b9190505550600260008260010160009054906101000a900473ffffffffffffffffffffffffffffffffffffffff1673ffffffffffffffffffffffffffffffffffffffff1673ffffffffffffffffffffffffffffffffffffffff1681526020019081526020016000206000815480929190610fc890611df6565b9190505550817f60f91a26281f20fb528663f4da55773c83e2ee8a7a5dddb6d1753749e81dc49b60405160405180910390a25050565b60026020528060005260406000206000915090505481565b6000600180549050905090565b60606001805480602002602001604051908101604052809291908181526020016000905b828210156111a65783829060005260206000209060050201604051806101000160405290816000820160009054906101000a900473ffffffffffffffffffffffffffffffffffffffff1673ffffffffffffffffffffffffffffffffffffffff1673ffffffffffffffffffffffffffffffffffffffff1681526020016001820160009054906101000a900473ffffffffffffffffffffffffffffffffffffffff1673ffffffffffffffffffffffffffffffffffffffff1673ffffffffffffffffffffffffffffffffffffffff16815260200160028201548152602001600382015481526020016004820160009054906101000a900460ff161515151581526020016004820160019054906101000a900460ff161515151581526020016004820160029054906101000a900460ff161515151581526020016004820160039054906101000a900460ff16151515158152505081526020019060010190611047565b50505050905090565b6000600182815481106111eb577f4e487b7100000000000000000000000000000000000000000000000000000000600052603260045260246000fd5b906000526020600020906005020190508060040160029054906101000a900460ff161561124d576040517f08c379a000000000000000000000000000000000000000000000000000000000815260040161124490611bd5565b60405180910390fd5b8060040160009054906101000a900460ff161561129f576040517f08c379a000000000000000000000000000000000000000000000000000000000815260040161129690611bf5565b60405180910390fd5b806003015434146112e5576040517f08c379a00000000000000000000000000000000000000000000000000000000081526004016112dc90611b75565b60405180910390fd5b8060000160009054906101000a900473ffffffffffffffffffffffffffffffffffffffff1673ffffffffffffffffffffffffffffffffffffffff163373ffffffffffffffffffffffffffffffffffffffff161415611378576040517f08c379a000000000000000000000000000000000000000000000000000000000815260040161136f90611bb5565b60405180910390fd5b338160010160006101000a81548173ffffffffffffffffffffffffffffffffffffffff021916908373ffffffffffffffffffffffffffffffffffffffff16021790555060018160040160006101000a81548160ff021916908315150217905550817f1fd578df323ef0e509ae001513c11d6327b80411be93b9be04e4100e63871351336040516114089190611a68565b60405180910390a25050565b60008135905061142381611e6e565b92915050565b60008135905061143881611e85565b92915050565b60008135905061144d81611e9c565b92915050565b60006020828403121561146557600080fd5b600061147384828501611414565b91505092915050565b60006020828403121561148e57600080fd5b600061149c8482850161143e565b91505092915050565b600080604083850312156114b857600080fd5b60006114c68582860161143e565b92505060206114d785828601611429565b9150509250929050565b600080604083850312156114f457600080fd5b60006115028582860161143e565b92505060206115138582860161143e565b9150509250929050565b600061152983836119a8565b6101008301905092915050565b61153f81611dae565b82525050565b61154e81611dae565b82525050565b600061155f82611d40565b6115698185611d58565b935061157483611d30565b8060005b838110156115a557815161158c888261151d565b975061159783611d4b565b925050600181019050611578565b5085935050505092915050565b6115bb81611dc0565b82525050565b6115ca81611dc0565b82525050565b60006115dd601183611d69565b91507f496e636f7272656374207061796d656e740000000000000000000000000000006000830152602082019050919050565b600061161d602483611d69565b91507f4f6e6c79207061727469636970616e74732063616e207261697365206469737060008301527f75746573000000000000000000000000000000000000000000000000000000006020830152604082019050919050565b6000611683601683611d69565b91507f53656c6c65722063616e6e6f74206265206275796572000000000000000000006000830152602082019050919050565b60006116c3601283611d69565b91507f54726164652069732063616e63656c6c656400000000000000000000000000006000830152602082019050919050565b6000611703601683611d69565b91507f547261646520616c7265616479206163636570746564000000000000000000006000830152602082019050919050565b6000611743601683611d69565b91507f4f6e6c792073656c6c65722063616e2063616e63656c000000000000000000006000830152602082019050919050565b6000611783601e83611d69565b91507f43616e6e6f742063616e63656c20616674657220616363657074616e636500006000830152602082019050919050565b60006117c3601683611d69565b91507f5472616465206e6f7420616363657074656420796574000000000000000000006000830152602082019050919050565b6000611803601783611d69565b91507f547261646520616c726561647920636f6d706c657465640000000000000000006000830152602082019050919050565b6000611843602283611d69565b91507f4f6e6c792061646d696e2063616e20706572666f726d2074686973206163746960008301527f6f6e0000000000000000000000000000000000000000000000000000000000006020830152604082019050919050565b60006118a9602383611d69565b91507f4f6e6c79206f6e676f696e67207472616465732063616e20626520646973707560008301527f74656400000000000000000000000000000000000000000000000000000000006020830152604082019050919050565b600061190f602183611d69565b91507f4f6e6c792062757965722063616e20636f6e6669726d20636f6d706c6574696f60008301527f6e000000000000000000000000000000000000000000000000000000000000006020830152604082019050919050565b6000611975601583611d69565b91507f4e6f206469737075746520746f207265736f6c766500000000000000000000006000830152602082019050919050565b610100820160008201516119bf6000850182611536565b5060208201516119d26020850182611536565b5060408201516119e56040850182611a4a565b5060608201516119f86060850182611a4a565b506080820151611a0b60808501826115b2565b5060a0820151611a1e60a08501826115b2565b5060c0820151611a3160c08501826115b2565b5060e0820151611a4460e08501826115b2565b50505050565b611a5381611dec565b82525050565b611a6281611dec565b82525050565b6000602082019050611a7d6000830184611545565b92915050565b600061010082019050611a99600083018b611545565b611aa6602083018a611545565b611ab36040830189611a59565b611ac06060830188611a59565b611acd60808301876115c1565b611ada60a08301866115c1565b611ae760c08301856115c1565b611af460e08301846115c1565b9998505050505050505050565b6000606082019050611b166000830186611545565b611b236020830185611a59565b611b306040830184611a59565b949350505050565b60006020820190508181036000830152611b528184611554565b905092915050565b6000602082019050611b6f60008301846115c1565b92915050565b60006020820190508181036000830152611b8e816115d0565b9050919050565b60006020820190508181036000830152611bae81611610565b9050919050565b60006020820190508181036000830152611bce81611676565b9050919050565b60006020820190508181036000830152611bee816116b6565b9050919050565b60006020820190508181036000830152611c0e816116f6565b9050919050565b60006020820190508181036000830152611c2e81611736565b9050919050565b60006020820190508181036000830152611c4e81611776565b9050919050565b60006020820190508181036000830152611c6e816117b6565b9050919050565b60006020820190508181036000830152611c8e816117f6565b9050919050565b60006020820190508181036000830152611cae81611836565b9050919050565b60006020820190508181036000830152611cce8161189c565b9050919050565b60006020820190508181036000830152611cee81611902565b9050919050565b60006020820190508181036000830152611d0e81611968565b9050919050565b6000602082019050611d2a6000830184611a59565b92915050565b6000819050602082019050919050565b600081519050919050565b6000602082019050919050565b600082825260208201905092915050565b600082825260208201905092915050565b6000611d8582611dec565b9150611d9083611dec565b925082821015611da357611da2611e3f565b5b828203905092915050565b6000611db982611dcc565b9050919050565b60008115159050919050565b600073ffffffffffffffffffffffffffffffffffffffff82169050919050565b6000819050919050565b6000611e0182611dec565b91507fffffffffffffffffffffffffffffffffffffffffffffffffffffffffffffffff821415611e3457611e33611e3f565b5b600182019050919050565b7f4e487b7100000000000000000000000000000000000000000000000000000000600052601160045260246000fd5b611e7781611dae565b8114611e8257600080fd5b50565b611e8e81611dc0565b8114611e9957600080fd5b50565b611ea581611dec565b8114611eb057600080fd5b5056fea26469706673582212201fd8b64dd8f97f1096753123937ca3bb203d9d2f5b0c49b9ad67c70a4dad913864736f6c63430008000033",
  "immutableReferences": {},
  "source": "// SPDX-License-Identifier: MIT\npragma solidity ^0.8.0;\n\ncontract EnergyTrade {\n    address public owner;\n\n    struct Trade {\n        address seller;\n        address buyer;\n        uint256 energyAmount; // in kWh\n        uint256 price; // in wei\n        bool isAccepted;\n        bool isCompleted;\n        bool isCancelled;\n        bool isDisputed;\n    }\n\n    Trade[] public trades;\n    mapping(address => uint256) public reputation; // Simplified on-chain reputation\n\n    modifier onlyOwner() {\n        require(msg.sender == owner, \"Only admin can perform this action\");\n        _;\n    }\n\n    constructor() {\n        owner = msg.sender;\n    }\n\n    event TradeCreated(uint indexed tradeId, address seller, uint energyAmount, uint price);\n    event TradeAccepted(uint indexed tradeId, address buyer);\n    event TradeCompleted(uint indexed tradeId);\n    event TradeCancelled(uint indexed tradeId);\n    event TradeDisputed(uint indexed tradeId);\n    event DisputeResolved(uint indexed tradeId, bool favorSeller);\n\n    function createTrade(uint256 _energyAmount, uint256 _price) external {\n        trades.push(Trade({\n            seller: msg.sender,\n            buyer: address(0),\n            energyAmount: _energyAmount,\n            price: _price,\n            isAccepted: false,\n            isCompleted: false,\n            isCancelled: false,\n            isDisputed: false\n        }));\n\n        emit TradeCreated(trades.length - 1, msg.sender, _energyAmount, _price);\n    }\n\n    function acceptTrade(uint _tradeId) external payable {\n        Trade storage trade = trades[_tradeId];\n        require(!trade.isCancelled, \"Trade is cancelled\");\n        require(!trade.isAccepted, \"Trade already accepted\");\n        require(msg.value == trade.price, \"Incorrect payment\");\n        require(msg.sender != trade.seller, \"Seller cannot be buyer\");\n\n        trade.buyer = msg.sender;\n        trade.isAccepted = true;\n\n        emit TradeAccepted(_tradeId, msg.sender); \n    }\n\n    function completeTrade(uint _tradeId) external {\n        Trade storage trade = trades[_tradeId];\n        require(trade.isAccepted, \"Trade not accepted yet\");\n        require(!trade.isCompleted, \"Trade already completed\");\n        require(msg.sender == trade.buyer, \"Only buyer can confirm completion\");\n\n        trade.isCompleted = true;\n        payable(trade.seller).transfer(trade.price);\n        reputation[trade.seller]++;\n        reputation[trade.buyer]++;\n\n        emit TradeCompleted(_tradeId);\n    }\n\n    function cancelTrade(uint _tradeId) external {\n        Trade storage trade = trades[_tradeId];\n        require(!trade.isAccepted, \"Cannot cancel after acceptance\");\n        require(msg.sender == trade.seller, \"Only seller can cancel\");\n\n        trade.isCancelled = true;\n        emit TradeCancelled(_tradeId);\n    }\n\n    function raiseDispute(uint _tradeId) external {\n        Trade storage trade = trades[_tradeId];\n        require(trade.isAccepted && !trade.isCompleted, \"Only ongoing trades can be disputed\");\n        require(msg.sender == trade.seller || msg.sender == trade.buyer, \"Only participants can raise disputes\");\n\n        trade.isDisputed = true;\n        emit TradeDisputed(_tradeId);\n    }\n\n    function resolveDispute(uint _tradeId, bool favorSeller) external onlyOwner {\n        Trade storage trade = trades[_tradeId];\n        require(trade.isDisputed, \"No dispute to resolve\");\n        require(!trade.isCompleted, \"Trade already completed\");\n\n        trade.isDisputed = false;\n        trade.isCompleted = true;\n\n        if (favorSeller) {\n            payable(trade.seller).transfer(trade.price);\n            reputation[trade.seller]++;\n        } else {\n            payable(trade.buyer).transfer(trade.price);\n            reputation[trade.buyer]++;\n        }\n\n        emit DisputeResolved(_tradeId, favorSeller);\n    }\n\n    function getAllTrades() external view returns (Trade[] memory) {\n        return trades;\n    }\n\n    function tradeCount() public view returns (uint) {\n        return trades.length;\n    }\n}",
  "sourcePath": "/Users/kavinantonyar/Projects/Innovision/contracts/EnergyTrade.sol",
  "compiler": {
    "name": "solc",
    "version": "0.8.0+commit.c7dfd78e.Emscripten.clang"
  },
  "schemaVersion": "3.4.16",
  "updatedAt": "2025-05-04T20:43:10.390Z",
  "networkType": "ethereum",
  "devdoc": {
    "kind": "dev",
    "methods": {},
    "version": 1
  },
  "userdoc": {
    "kind": "user",
    "methods": {},
    "version": 1
  }
}