{
  "contractName": "EnergyTrade",
  "abi": [
    {
      "inputs": [],
      "stateMutability": "nonpayable",
      "type": "constructor"
    },
    {
      "anonymous": false,
      "inputs": [
        {
          "indexed": true,
          "internalType": "uint256",
          "name": "tradeId",
          "type": "uint256"
        },
        {
          "indexed": false,
          "internalType": "bool",
          "name": "favorSeller",
          "type": "bool"
        }
      ],
      "name": "DisputeResolved",
      "type": "event"
    },
    {
      "anonymous": false,
      "inputs": [
        {
          "indexed": true,
          "internalType": "uint256",
          "name": "tradeId",
          "type": "uint256"
        },
        {
          "indexed": false,
          "internalType": "address",
          "name": "buyer",
          "type": "address"
        }
      ],
      "name": "TradeAccepted",
      "type": "event"
    },
    {
      "anonymous": false,
      "inputs": [
        {
          "indexed": true,
          "internalType": "uint256",
          "name": "tradeId",
          "type": "uint256"
        }
      ],
      "name": "TradeCancelled",
      "type": "event"
    },
    {
      "anonymous": false,
      "inputs": [
        {
          "indexed": true,
          "internalType": "uint256",
          "name": "tradeId",
          "type": "uint256"
        }
      ],
      "name": "TradeCompleted",
      "type": "event"
    },
    {
      "anonymous": false,
      "inputs": [
        {
          "indexed": true,
          "internalType": "uint256",
          "name": "tradeId",
          "type": "uint256"
        },
        {
          "indexed": false,
          "internalType": "address",
          "name": "seller",
          "type": "address"
        },
        {
          "indexed": false,
          "internalType": "uint256",
          "name": "energyAmount",
          "type": "uint256"
        },
        {
          "indexed": false,
          "internalType": "uint256",
          "name": "price",
          "type": "uint256"
        }
      ],
      "name": "TradeCreated",
      "type": "event"
    },
    {
      "anonymous": false,
      "inputs": [
        {
          "indexed": true,
          "internalType": "uint256",
          "name": "tradeId",
          "type": "uint256"
        }
      ],
      "name": "TradeDisputed",
      "type": "event"
    },
    {
      "anonymous": false,
      "inputs": [
        {
          "indexed": true,
          "internalType": "uint256",
          "name": "tradeId",
          "type": "uint256"
        },
        {
          "indexed": false,
          "internalType": "address",
          "name": "refundedTo",
          "type": "address"
        }
      ],
      "name": "TradeTimedOut",
      "type": "event"
    },
    {
      "inputs": [],
      "name": "disputeDeposit",
      "outputs": [
        {
          "internalType": "uint256",
          "name": "",
          "type": "uint256"
        }
      ],
      "stateMutability": "view",
      "type": "function",
      "constant": true
    },
    {
      "inputs": [],
      "name": "owner",
      "outputs": [
        {
          "internalType": "address",
          "name": "",
          "type": "address"
        }
      ],
      "stateMutability": "view",
      "type": "function",
      "constant": true
    },
    {
      "inputs": [
        {
          "internalType": "address",
          "name": "",
          "type": "address"
        }
      ],
      "name": "reputation",
      "outputs": [
        {
          "internalType": "uint256",
          "name": "",
          "type": "uint256"
        }
      ],
      "stateMutability": "view",
      "type": "function",
      "constant": true
    },
    {
      "inputs": [],
      "name": "timeoutPeriod",
      "outputs": [
        {
          "internalType": "uint256",
          "name": "",
          "type": "uint256"
        }
      ],
      "stateMutability": "view",
      "type": "function",
      "constant": true
    },
    {
      "inputs": [
        {
          "internalType": "uint256",
          "name": "",
          "type": "uint256"
        }
      ],
      "name": "trades",
      "outputs": [
        {
          "internalType": "address",
          "name": "seller",
          "type": "address"
        },
        {
          "internalType": "address",
          "name": "buyer",
          "type": "address"
        },
        {
          "internalType": "uint256",
          "name": "energyAmount",
          "type": "uint256"
        },
        {
          "internalType": "uint256",
          "name": "price",
          "type": "uint256"
        },
        {
          "internalType": "uint256",
          "name": "timestamp",
          "type": "uint256"
        },
        {
          "internalType": "bool",
          "name": "isAccepted",
          "type": "bool"
        },
        {
          "internalType": "bool",
          "name": "isCompleted",
          "type": "bool"
        },
        {
          "internalType": "bool",
          "name": "isCancelled",
          "type": "bool"
        },
        {
          "internalType": "bool",
          "name": "isDisputed",
          "type": "bool"
        }
      ],
      "stateMutability": "view",
      "type": "function",
      "constant": true
    },
    {
      "stateMutability": "payable",
      "type": "receive",
      "payable": true
    },
    {
      "inputs": [
        {
          "internalType": "uint256",
          "name": "_energyAmount",
          "type": "uint256"
        },
        {
          "internalType": "uint256",
          "name": "_price",
          "type": "uint256"
        }
      ],
      "name": "createTrade",
      "outputs": [],
      "stateMutability": "nonpayable",
      "type": "function"
    },
    {
      "inputs": [
        {
          "internalType": "uint256",
          "name": "_tradeId",
          "type": "uint256"
        }
      ],
      "name": "acceptTrade",
      "outputs": [],
      "stateMutability": "payable",
      "type": "function",
      "payable": true
    },
    {
      "inputs": [
        {
          "internalType": "uint256",
          "name": "_tradeId",
          "type": "uint256"
        }
      ],
      "name": "completeTrade",
      "outputs": [],
      "stateMutability": "nonpayable",
      "type": "function"
    },
    {
      "inputs": [
        {
          "internalType": "uint256",
          "name": "_tradeId",
          "type": "uint256"
        }
      ],
      "name": "cancelTrade",
      "outputs": [],
      "stateMutability": "nonpayable",
      "type": "function"
    },
    {
      "inputs": [
        {
          "internalType": "uint256",
          "name": "_tradeId",
          "type": "uint256"
        }
      ],
      "name": "raiseDispute",
      "outputs": [],
      "stateMutability": "payable",
      "type": "function",
      "payable": true
    },
    {
      "inputs": [
        {
          "internalType": "uint256",
          "name": "_tradeId",
          "type": "uint256"
        },
        {
          "internalType": "bool",
          "name": "favorSeller",
          "type": "bool"
        }
      ],
      "name": "resolveDispute",
      "outputs": [],
      "stateMutability": "nonpayable",
      "type": "function"
    },
    {
      "inputs": [
        {
          "internalType": "uint256",
          "name": "_tradeId",
          "type": "uint256"
        }
      ],
      "name": "timeoutTrade",
      "outputs": [],
      "stateMutability": "nonpayable",
      "type": "function"
    },
    {
      "inputs": [],
      "name": "getAllTrades",
      "outputs": [
        {
          "components": [
            {
              "internalType": "address",
              "name": "seller",
              "type": "address"
            },
            {
              "internalType": "address",
              "name": "buyer",
              "type": "address"
            },
            {
              "internalType": "uint256",
              "name": "energyAmount",
              "type": "uint256"
            },
            {
              "internalType": "uint256",
              "name": "price",
              "type": "uint256"
            },
            {
              "internalType": "uint256",
              "name": "timestamp",
              "type": "uint256"
            },
            {
              "internalType": "bool",
              "name": "isAccepted",
              "type": "bool"
            },
            {
              "internalType": "bool",
              "name": "isCompleted",
              "type": "bool"
            },
            {
              "internalType": "bool",
              "name": "isCancelled",
              "type": "bool"
            },
            {
              "internalType": "bool",
              "name": "isDisputed",
              "type": "bool"
            }
          ],
          "internalType": "struct EnergyTrade.Trade[]",
          "name": "",
          "type": "tuple[]"
        }
      ],
      "stateMutability": "view",
      "type": "function",
      "constant": true
    },
    {
      "inputs": [],
      "name": "tradeCount",
      "outputs": [
        {
          "internalType": "uint256",
          "name": "",
          "type": "uint256"
        }
      ],
      "stateMutability": "view",
      "type": "function",
      "constant": true
    },
    {
      "inputs": [
        {
          "internalType": "uint256",
          "name": "_newAmount",
          "type": "uint256"
        }
      ],
      "name": "updateDisputeDeposit",
      "outputs": [],
      "stateMutability": "nonpayable",
      "type": "function"
    },
    {
      "inputs": [
        {
          "internalType": "uint256",
          "name": "_seconds",
          "type": "uint256"
        }
      ],
      "name": "updateTimeoutPeriod",
      "outputs": [],
      "stateMutability": "nonpayable",
      "type": "function"
    }
  ],
  "bytecode": "0x6080604052662386f26fc100006002556203f48060035534801561002257600080fd5b50600160008190555033600160006101000a81548173ffffffffffffffffffffffffffffffffffffffff021916908373ffffffffffffffffffffffffffffffffffffffff160217905550612ae18061007b6000396000f3fe6080604052600436106100f75760003560e01c806396463fc61161008a578063bd55022a11610059578063bd55022a14610351578063ce99c0ce1461037c578063d684d5b1146103a7578063ecb9fec3146103d057610137565b806396463fc6146102a6578063a5c1674e146102cf578063ad221551146102eb578063b9f794511461031457610137565b80634ecbfd64116100c65780634ecbfd64146101fe5780636b5d4503146102275780636cea6b82146102505780638da5cb5b1461027b57610137565b806309ec6cc71461013c5780631e6c598e1461016557806329e03ff1146101aa57806334b25ee2146101d557610137565b36610137576040517f08c379a000000000000000000000000000000000000000000000000000000000815260040161012e90612817565b60405180910390fd5b600080fd5b34801561014857600080fd5b50610163600480360381019061015e9190611cfa565b6103ec565b005b34801561017157600080fd5b5061018c60048036038101906101879190611cfa565b6105b3565b6040516101a199989796959493929190612516565b60405180910390f35b3480156101b657600080fd5b506101bf610685565b6040516101cc91906128b7565b60405180910390f35b3480156101e157600080fd5b506101fc60048036038101906101f79190611d23565b61068b565b005b34801561020a57600080fd5b5061022560048036038101906102209190611cfa565b610aff565b005b34801561023357600080fd5b5061024e60048036038101906102499190611cfa565b610b99565b005b34801561025c57600080fd5b50610265610c33565b60405161027291906128b7565b60405180910390f35b34801561028757600080fd5b50610290610c39565b60405161029d91906124fb565b60405180910390f35b3480156102b257600080fd5b506102cd60048036038101906102c89190611d5f565b610c5f565b005b6102e960048036038101906102e49190611cfa565b610e83565b005b3480156102f757600080fd5b50610312600480360381019061030d9190611cfa565b611154565b005b34801561032057600080fd5b5061033b60048036038101906103369190611cd1565b6114dd565b60405161034891906128b7565b60405180910390f35b34801561035d57600080fd5b506103666114f5565b60405161037391906128b7565b60405180910390f35b34801561038857600080fd5b50610391611502565b60405161039e91906125da565b60405180910390f35b3480156103b357600080fd5b506103ce60048036038101906103c99190611cfa565b611698565b005b6103ea60048036038101906103e59190611cfa565b611971565b005b806004805490508110610434576040517f08c379a000000000000000000000000000000000000000000000000000000000815260040161042b906127d7565b60405180910390fd5b600060048381548110610470577f4e487b7100000000000000000000000000000000000000000000000000000000600052603260045260246000fd5b906000526020600020906006020190508060050160009054906101000a900460ff16156104d2576040517f08c379a00000000000000000000000000000000000000000000000000000000081526004016104c990612757565b60405180910390fd5b8060000160009054906101000a900473ffffffffffffffffffffffffffffffffffffffff1673ffffffffffffffffffffffffffffffffffffffff163373ffffffffffffffffffffffffffffffffffffffff1614610564576040517f08c379a000000000000000000000000000000000000000000000000000000000815260040161055b90612717565b60405180910390fd5b60018160050160026101000a81548160ff021916908315150217905550827f4e02dcf02d8510f6c8a6878a3c54ae6e2bfbf552df29221d7a1eed173a6b1ae760405160405180910390a2505050565b600481815481106105c357600080fd5b90600052602060002090600602016000915090508060000160009054906101000a900473ffffffffffffffffffffffffffffffffffffffff16908060010160009054906101000a900473ffffffffffffffffffffffffffffffffffffffff16908060020154908060030154908060040154908060050160009054906101000a900460ff16908060050160019054906101000a900460ff16908060050160029054906101000a900460ff16908060050160039054906101000a900460ff16905089565b60025481565b600160009054906101000a900473ffffffffffffffffffffffffffffffffffffffff1673ffffffffffffffffffffffffffffffffffffffff163373ffffffffffffffffffffffffffffffffffffffff161461071b576040517f08c379a0000000000000000000000000000000000000000000000000000000008152600401610712906127b7565b60405180910390fd5b816004805490508110610763576040517f08c379a000000000000000000000000000000000000000000000000000000000815260040161075a906127d7565b60405180910390fd5b61076b611c38565b6000600484815481106107a7577f4e487b7100000000000000000000000000000000000000000000000000000000600052603260045260246000fd5b906000526020600020906006020190508060050160039054906101000a900460ff16610808576040517f08c379a00000000000000000000000000000000000000000000000000000000081526004016107ff90612897565b60405180910390fd5b8060050160019054906101000a900460ff161561085a576040517f08c379a000000000000000000000000000000000000000000000000000000000815260040161085190612797565b60405180910390fd5b60008160050160036101000a81548160ff02191690831515021790555060018160050160016101000a81548160ff0219169083151502179055508215610987578060000160009054906101000a900473ffffffffffffffffffffffffffffffffffffffff1673ffffffffffffffffffffffffffffffffffffffff166108fc82600301549081150290604051600060405180830381858888f19350505050158015610908573d6000803e3d6000fd5b50600560008260000160009054906101000a900473ffffffffffffffffffffffffffffffffffffffff1673ffffffffffffffffffffffffffffffffffffffff1673ffffffffffffffffffffffffffffffffffffffff168152602001908152602001600020600081548092919061097d906129ee565b9190505550610a70565b8060010160009054906101000a900473ffffffffffffffffffffffffffffffffffffffff1673ffffffffffffffffffffffffffffffffffffffff166108fc82600301549081150290604051600060405180830381858888f193505050501580156109f5573d6000803e3d6000fd5b50600560008260010160009054906101000a900473ffffffffffffffffffffffffffffffffffffffff1673ffffffffffffffffffffffffffffffffffffffff1673ffffffffffffffffffffffffffffffffffffffff1681526020019081526020016000206000815480929190610a6a906129ee565b91905055505b3373ffffffffffffffffffffffffffffffffffffffff166108fc6002549081150290604051600060405180830381858888f19350505050158015610ab8573d6000803e3d6000fd5b50837f5a87909bff68caaaaf0b3fd9c74eeccc928832f879315e5c6fb7a73612f26c0c84604051610ae991906125fc565b60405180910390a250610afa611c88565b505050565b600160009054906101000a900473ffffffffffffffffffffffffffffffffffffffff1673ffffffffffffffffffffffffffffffffffffffff163373ffffffffffffffffffffffffffffffffffffffff1614610b8f576040517f08c379a0000000000000000000000000000000000000000000000000000000008152600401610b86906127b7565b60405180910390fd5b8060038190555050565b600160009054906101000a900473ffffffffffffffffffffffffffffffffffffffff1673ffffffffffffffffffffffffffffffffffffffff163373ffffffffffffffffffffffffffffffffffffffff1614610c29576040517f08c379a0000000000000000000000000000000000000000000000000000000008152600401610c20906127b7565b60405180910390fd5b8060028190555050565b60035481565b600160009054906101000a900473ffffffffffffffffffffffffffffffffffffffff1681565b60046040518061012001604052803373ffffffffffffffffffffffffffffffffffffffff168152602001600073ffffffffffffffffffffffffffffffffffffffff16815260200184815260200183815260200142815260200160001515815260200160001515815260200160001515815260200160001515815250908060018154018082558091505060019003906000526020600020906006020160009091909190915060008201518160000160006101000a81548173ffffffffffffffffffffffffffffffffffffffff021916908373ffffffffffffffffffffffffffffffffffffffff16021790555060208201518160010160006101000a81548173ffffffffffffffffffffffffffffffffffffffff021916908373ffffffffffffffffffffffffffffffffffffffff16021790555060408201518160020155606082015181600301556080820151816004015560a08201518160050160006101000a81548160ff02191690831515021790555060c08201518160050160016101000a81548160ff02191690831515021790555060e08201518160050160026101000a81548160ff0219169083151502179055506101008201518160050160036101000a81548160ff02191690831515021790555050506001600480549050610e449190612972565b7fd0e9aa5556e03c447575bd31d7a883384c075015de0184785193f025fbfd5451338484604051610e77939291906125a3565b60405180910390a25050565b806004805490508110610ecb576040517f08c379a0000000000000000000000000000000000000000000000000000000008152600401610ec2906127d7565b60405180910390fd5b600060048381548110610f07577f4e487b7100000000000000000000000000000000000000000000000000000000600052603260045260246000fd5b906000526020600020906006020190508060050160009054906101000a900460ff168015610f4457508060050160019054906101000a900460ff16155b610f83576040517f08c379a0000000000000000000000000000000000000000000000000000000008152600401610f7a90612837565b60405180910390fd5b8060000160009054906101000a900473ffffffffffffffffffffffffffffffffffffffff1673ffffffffffffffffffffffffffffffffffffffff163373ffffffffffffffffffffffffffffffffffffffff16148061103057508060010160009054906101000a900473ffffffffffffffffffffffffffffffffffffffff1673ffffffffffffffffffffffffffffffffffffffff163373ffffffffffffffffffffffffffffffffffffffff16145b61106f576040517f08c379a000000000000000000000000000000000000000000000000000000000815260040161106690612637565b60405180910390fd5b8060050160039054906101000a900460ff16156110c1576040517f08c379a00000000000000000000000000000000000000000000000000000000081526004016110b890612697565b60405180910390fd5b6002543414611105576040517f08c379a00000000000000000000000000000000000000000000000000000000081526004016110fc90612737565b60405180910390fd5b60018160050160036101000a81548160ff021916908315150217905550827f995328816eb12e50ec2691560298922cd9ead6191e59874ef2ef6ca8c766d72560405160405180910390a2505050565b80600480549050811061119c576040517f08c379a0000000000000000000000000000000000000000000000000000000008152600401611193906127d7565b60405180910390fd5b6111a4611c38565b6000600483815481106111e0577f4e487b7100000000000000000000000000000000000000000000000000000000600052603260045260246000fd5b906000526020600020906006020190508060050160009054906101000a900460ff16611241576040517f08c379a000000000000000000000000000000000000000000000000000000000815260040161123890612777565b60405180910390fd5b8060050160019054906101000a900460ff1615611293576040517f08c379a000000000000000000000000000000000000000000000000000000000815260040161128a90612797565b60405180910390fd5b8060010160009054906101000a900473ffffffffffffffffffffffffffffffffffffffff1673ffffffffffffffffffffffffffffffffffffffff163373ffffffffffffffffffffffffffffffffffffffff1614611325576040517f08c379a000000000000000000000000000000000000000000000000000000000815260040161131c90612877565b60405180910390fd5b60018160050160016101000a81548160ff0219169083151502179055508060000160009054906101000a900473ffffffffffffffffffffffffffffffffffffffff1673ffffffffffffffffffffffffffffffffffffffff166108fc82600301549081150290604051600060405180830381858888f193505050501580156113b0573d6000803e3d6000fd5b50600560008260000160009054906101000a900473ffffffffffffffffffffffffffffffffffffffff1673ffffffffffffffffffffffffffffffffffffffff1673ffffffffffffffffffffffffffffffffffffffff1681526020019081526020016000206000815480929190611425906129ee565b9190505550600560008260010160009054906101000a900473ffffffffffffffffffffffffffffffffffffffff1673ffffffffffffffffffffffffffffffffffffffff1673ffffffffffffffffffffffffffffffffffffffff168152602001908152602001600020600081548092919061149e906129ee565b9190505550827f60f91a26281f20fb528663f4da55773c83e2ee8a7a5dddb6d1753749e81dc49b60405160405180910390a2506114d9611c88565b5050565b60056020528060005260406000206000915090505481565b6000600480549050905090565b60606004805480602002602001604051908101604052809291908181526020016000905b8282101561168f5783829060005260206000209060060201604051806101200160405290816000820160009054906101000a900473ffffffffffffffffffffffffffffffffffffffff1673ffffffffffffffffffffffffffffffffffffffff1673ffffffffffffffffffffffffffffffffffffffff1681526020016001820160009054906101000a900473ffffffffffffffffffffffffffffffffffffffff1673ffffffffffffffffffffffffffffffffffffffff1673ffffffffffffffffffffffffffffffffffffffff1681526020016002820154815260200160038201548152602001600482015481526020016005820160009054906101000a900460ff161515151581526020016005820160019054906101000a900460ff161515151581526020016005820160029054906101000a900460ff161515151581526020016005820160039054906101000a900460ff16151515158152505081526020019060010190611526565b50505050905090565b8060048054905081106116e0576040517f08c379a00000000000000000000000000000000000000000000000000000000081526004016116d7906127d7565b60405180910390fd5b6116e8611c38565b600060048381548110611724577f4e487b7100000000000000000000000000000000000000000000000000000000600052603260045260246000fd5b906000526020600020906006020190508060050160009054906101000a900460ff16611785576040517f08c379a000000000000000000000000000000000000000000000000000000000815260040161177c90612657565b60405180910390fd5b8060050160019054906101000a900460ff16156117d7576040517f08c379a00000000000000000000000000000000000000000000000000000000081526004016117ce90612797565b60405180910390fd5b8060050160039054906101000a900460ff1615611829576040517f08c379a0000000000000000000000000000000000000000000000000000000008152600401611820906127f7565b60405180910390fd5b600354816004015461183b919061291c565b421161187c576040517f08c379a0000000000000000000000000000000000000000000000000000000008152600401611873906126d7565b60405180910390fd5b60018160050160016101000a81548160ff0219169083151502179055508060010160009054906101000a900473ffffffffffffffffffffffffffffffffffffffff1673ffffffffffffffffffffffffffffffffffffffff166108fc82600301549081150290604051600060405180830381858888f19350505050158015611907573d6000803e3d6000fd5b50827f46de320d676aeb5b2785472a2443b0a093f8c64587b731b22c0ec2e9f15d50ea8260010160009054906101000a900473ffffffffffffffffffffffffffffffffffffffff1660405161195c91906124fb565b60405180910390a25061196d611c88565b5050565b8060048054905081106119b9576040517f08c379a00000000000000000000000000000000000000000000000000000000081526004016119b0906127d7565b60405180910390fd5b6119c1611c38565b6000600483815481106119fd577f4e487b7100000000000000000000000000000000000000000000000000000000600052603260045260246000fd5b906000526020600020906006020190508060050160029054906101000a900460ff1615611a5f576040517f08c379a0000000000000000000000000000000000000000000000000000000008152600401611a56906126b7565b60405180910390fd5b8060050160009054906101000a900460ff1615611ab1576040517f08c379a0000000000000000000000000000000000000000000000000000000008152600401611aa8906126f7565b60405180910390fd5b80600301543414611af7576040517f08c379a0000000000000000000000000000000000000000000000000000000008152600401611aee90612617565b60405180910390fd5b8060000160009054906101000a900473ffffffffffffffffffffffffffffffffffffffff1673ffffffffffffffffffffffffffffffffffffffff163373ffffffffffffffffffffffffffffffffffffffff161415611b8a576040517f08c379a0000000000000000000000000000000000000000000000000000000008152600401611b8190612677565b60405180910390fd5b338160010160006101000a81548173ffffffffffffffffffffffffffffffffffffffff021916908373ffffffffffffffffffffffffffffffffffffffff16021790555060018160050160006101000a81548160ff021916908315150217905550428160040181905550827f1fd578df323ef0e509ae001513c11d6327b80411be93b9be04e4100e6387135133604051611c2391906124fb565b60405180910390a250611c34611c88565b5050565b60026000541415611c7e576040517f08c379a0000000000000000000000000000000000000000000000000000000008152600401611c7590612857565b60405180910390fd5b6002600081905550565b6001600081905550565b600081359050611ca181612a66565b92915050565b600081359050611cb681612a7d565b92915050565b600081359050611ccb81612a94565b92915050565b600060208284031215611ce357600080fd5b6000611cf184828501611c92565b91505092915050565b600060208284031215611d0c57600080fd5b6000611d1a84828501611cbc565b91505092915050565b60008060408385031215611d3657600080fd5b6000611d4485828601611cbc565b9250506020611d5585828601611ca7565b9150509250929050565b60008060408385031215611d7257600080fd5b6000611d8085828601611cbc565b9250506020611d9185828601611cbc565b9150509250929050565b6000611da78383612426565b6101208301905092915050565b611dbd816129a6565b82525050565b611dcc816129a6565b82525050565b6000611ddd826128e2565b611de781856128fa565b9350611df2836128d2565b8060005b83811015611e23578151611e0a8882611d9b565b9750611e15836128ed565b925050600181019050611df6565b5085935050505092915050565b611e39816129b8565b82525050565b611e48816129b8565b82525050565b6000611e5b60118361290b565b91507f496e636f7272656374207061796d656e740000000000000000000000000000006000830152602082019050919050565b6000611e9b60248361290b565b91507f4f6e6c79207061727469636970616e74732063616e207261697365206469737060008301527f75746573000000000000000000000000000000000000000000000000000000006020830152604082019050919050565b6000611f0160128361290b565b91507f5472616465206e6f7420616363657074656400000000000000000000000000006000830152602082019050919050565b6000611f4160168361290b565b91507f53656c6c65722063616e6e6f74206265206275796572000000000000000000006000830152602082019050919050565b6000611f8160108361290b565b91507f416c7265616479206469737075746564000000000000000000000000000000006000830152602082019050919050565b6000611fc160128361290b565b91507f54726164652069732063616e63656c6c656400000000000000000000000000006000830152602082019050919050565b6000612001601a8361290b565b91507f54696d656f757420706572696f64206e6f7420726561636865640000000000006000830152602082019050919050565b600061204160168361290b565b91507f547261646520616c7265616479206163636570746564000000000000000000006000830152602082019050919050565b600061208160168361290b565b91507f4f6e6c792073656c6c65722063616e2063616e63656c000000000000000000006000830152602082019050919050565b60006120c160188361290b565b91507f44697370757465207265717569726573206465706f73697400000000000000006000830152602082019050919050565b6000612101601e8361290b565b91507f43616e6e6f742063616e63656c20616674657220616363657074616e636500006000830152602082019050919050565b600061214160168361290b565b91507f5472616465206e6f7420616363657074656420796574000000000000000000006000830152602082019050919050565b600061218160178361290b565b91507f547261646520616c726561647920636f6d706c657465640000000000000000006000830152602082019050919050565b60006121c160228361290b565b91507f4f6e6c792061646d696e2063616e20706572666f726d2074686973206163746960008301527f6f6e0000000000000000000000000000000000000000000000000000000000006020830152604082019050919050565b600061222760108361290b565b91507f496e76616c6964207472616465204944000000000000000000000000000000006000830152602082019050919050565b6000612267601d8361290b565b91507f43616e6e6f742074696d656f75742064697370757465642074726164650000006000830152602082019050919050565b60006122a7601f8361290b565b91507f44697265637420455448207472616e73666572206e6f7420616c6c6f776564006000830152602082019050919050565b60006122e760238361290b565b91507f4f6e6c79206f6e676f696e67207472616465732063616e20626520646973707560008301527f74656400000000000000000000000000000000000000000000000000000000006020830152604082019050919050565b600061234d601f8361290b565b91507f5265656e7472616e637947756172643a207265656e7472616e742063616c6c006000830152602082019050919050565b600061238d60218361290b565b91507f4f6e6c792062757965722063616e20636f6e6669726d20636f6d706c6574696f60008301527f6e000000000000000000000000000000000000000000000000000000000000006020830152604082019050919050565b60006123f360158361290b565b91507f4e6f206469737075746520746f207265736f6c766500000000000000000000006000830152602082019050919050565b6101208201600082015161243d6000850182611db4565b5060208201516124506020850182611db4565b50604082015161246360408501826124dd565b50606082015161247660608501826124dd565b50608082015161248960808501826124dd565b5060a082015161249c60a0850182611e30565b5060c08201516124af60c0850182611e30565b5060e08201516124c260e0850182611e30565b506101008201516124d7610100850182611e30565b50505050565b6124e6816129e4565b82525050565b6124f5816129e4565b82525050565b60006020820190506125106000830184611dc3565b92915050565b60006101208201905061252c600083018c611dc3565b612539602083018b611dc3565b612546604083018a6124ec565b61255360608301896124ec565b61256060808301886124ec565b61256d60a0830187611e3f565b61257a60c0830186611e3f565b61258760e0830185611e3f565b612595610100830184611e3f565b9a9950505050505050505050565b60006060820190506125b86000830186611dc3565b6125c560208301856124ec565b6125d260408301846124ec565b949350505050565b600060208201905081810360008301526125f48184611dd2565b905092915050565b60006020820190506126116000830184611e3f565b92915050565b6000602082019050818103600083015261263081611e4e565b9050919050565b6000602082019050818103600083015261265081611e8e565b9050919050565b6000602082019050818103600083015261267081611ef4565b9050919050565b6000602082019050818103600083015261269081611f34565b9050919050565b600060208201905081810360008301526126b081611f74565b9050919050565b600060208201905081810360008301526126d081611fb4565b9050919050565b600060208201905081810360008301526126f081611ff4565b9050919050565b6000602082019050818103600083015261271081612034565b9050919050565b6000602082019050818103600083015261273081612074565b9050919050565b60006020820190508181036000830152612750816120b4565b9050919050565b60006020820190508181036000830152612770816120f4565b9050919050565b6000602082019050818103600083015261279081612134565b9050919050565b600060208201905081810360008301526127b081612174565b9050919050565b600060208201905081810360008301526127d0816121b4565b9050919050565b600060208201905081810360008301526127f08161221a565b9050919050565b600060208201905081810360008301526128108161225a565b9050919050565b600060208201905081810360008301526128308161229a565b9050919050565b60006020820190508181036000830152612850816122da565b9050919050565b6000602082019050818103600083015261287081612340565b9050919050565b6000602082019050818103600083015261289081612380565b9050919050565b600060208201905081810360008301526128b0816123e6565b9050919050565b60006020820190506128cc60008301846124ec565b92915050565b6000819050602082019050919050565b600081519050919050565b6000602082019050919050565b600082825260208201905092915050565b600082825260208201905092915050565b6000612927826129e4565b9150612932836129e4565b9250827fffffffffffffffffffffffffffffffffffffffffffffffffffffffffffffffff0382111561296757612966612a37565b5b828201905092915050565b600061297d826129e4565b9150612988836129e4565b92508282101561299b5761299a612a37565b5b828203905092915050565b60006129b1826129c4565b9050919050565b60008115159050919050565b600073ffffffffffffffffffffffffffffffffffffffff82169050919050565b6000819050919050565b60006129f9826129e4565b91507fffffffffffffffffffffffffffffffffffffffffffffffffffffffffffffffff821415612a2c57612a2b612a37565b5b600182019050919050565b7f4e487b7100000000000000000000000000000000000000000000000000000000600052601160045260246000fd5b612a6f816129a6565b8114612a7a57600080fd5b50565b612a86816129b8565b8114612a9157600080fd5b50565b612a9d816129e4565b8114612aa857600080fd5b5056fea26469706673582212206577e0b6b4de90c8ab5123ab816fc1f1b181d50fe3ab304485d0cdd6103d013e64736f6c63430008000033",
  "immutableReferences": {},
  "source": "// SPDX-License-Identifier: MIT\npragma solidity ^0.8.0;\n\nimport \"@openzeppelin/contracts/security/ReentrancyGuard.sol\";\n\ncontract EnergyTrade is ReentrancyGuard {\n    address public owner;\n    uint256 public disputeDeposit = 0.01 ether;\n    uint256 public timeoutPeriod = 3 days;\n\n    struct Trade {\n        address seller;\n        address buyer;\n        uint256 energyAmount; // in kWh\n        uint256 price; // in wei\n        uint256 timestamp; // creation time\n        bool isAccepted;\n        bool isCompleted;\n        bool isCancelled;\n        bool isDisputed;\n    }\n\n    Trade[] public trades;\n    mapping(address => uint256) public reputation;\n\n    modifier onlyOwner() {\n        require(msg.sender == owner, \"Only admin can perform this action\");\n        _;\n    }\n\n    modifier validTradeId(uint _tradeId) {\n        require(_tradeId < trades.length, \"Invalid trade ID\");\n        _;\n    }\n\n    event TradeCreated(uint indexed tradeId, address seller, uint energyAmount, uint price);\n    event TradeAccepted(uint indexed tradeId, address buyer);\n    event TradeCompleted(uint indexed tradeId);\n    event TradeCancelled(uint indexed tradeId);\n    event TradeDisputed(uint indexed tradeId);\n    event DisputeResolved(uint indexed tradeId, bool favorSeller);\n    event TradeTimedOut(uint indexed tradeId, address refundedTo);\n\n    constructor() {\n        owner = msg.sender;\n    }\n\n    receive() external payable {\n        revert(\"Direct ETH transfer not allowed\");\n    }\n\n    function createTrade(uint256 _energyAmount, uint256 _price) external {\n        trades.push(Trade({\n            seller: msg.sender,\n            buyer: address(0),\n            energyAmount: _energyAmount,\n            price: _price,\n            timestamp: block.timestamp,\n            isAccepted: false,\n            isCompleted: false,\n            isCancelled: false,\n            isDisputed: false\n        }));\n\n        emit TradeCreated(trades.length - 1, msg.sender, _energyAmount, _price);\n    }\n\n    function acceptTrade(uint _tradeId) external payable validTradeId(_tradeId) nonReentrant {\n        Trade storage trade = trades[_tradeId];\n        require(!trade.isCancelled, \"Trade is cancelled\");\n        require(!trade.isAccepted, \"Trade already accepted\");\n        require(msg.value == trade.price, \"Incorrect payment\");\n        require(msg.sender != trade.seller, \"Seller cannot be buyer\");\n\n        trade.buyer = msg.sender;\n        trade.isAccepted = true;\n        trade.timestamp = block.timestamp;\n\n        emit TradeAccepted(_tradeId, msg.sender); \n    }\n\n    function completeTrade(uint _tradeId) external validTradeId(_tradeId) nonReentrant {\n        Trade storage trade = trades[_tradeId];\n        require(trade.isAccepted, \"Trade not accepted yet\");\n        require(!trade.isCompleted, \"Trade already completed\");\n        require(msg.sender == trade.buyer, \"Only buyer can confirm completion\");\n\n        trade.isCompleted = true;\n        payable(trade.seller).transfer(trade.price);\n        reputation[trade.seller]++;\n        reputation[trade.buyer]++;\n\n        emit TradeCompleted(_tradeId);\n    }\n\n    function cancelTrade(uint _tradeId) external validTradeId(_tradeId) {\n        Trade storage trade = trades[_tradeId];\n        require(!trade.isAccepted, \"Cannot cancel after acceptance\");\n        require(msg.sender == trade.seller, \"Only seller can cancel\");\n\n        trade.isCancelled = true;\n        emit TradeCancelled(_tradeId);\n    }\n\n    function raiseDispute(uint _tradeId) external payable validTradeId(_tradeId) {\n        Trade storage trade = trades[_tradeId];\n        require(trade.isAccepted && !trade.isCompleted, \"Only ongoing trades can be disputed\");\n        require(msg.sender == trade.seller || msg.sender == trade.buyer, \"Only participants can raise disputes\");\n        require(!trade.isDisputed, \"Already disputed\");\n        require(msg.value == disputeDeposit, \"Dispute requires deposit\");\n\n        trade.isDisputed = true;\n        emit TradeDisputed(_tradeId);\n    }\n\n    function resolveDispute(uint _tradeId, bool favorSeller) external onlyOwner validTradeId(_tradeId) nonReentrant {\n        Trade storage trade = trades[_tradeId];\n        require(trade.isDisputed, \"No dispute to resolve\");\n        require(!trade.isCompleted, \"Trade already completed\");\n\n        trade.isDisputed = false;\n        trade.isCompleted = true;\n\n        if (favorSeller) {\n            payable(trade.seller).transfer(trade.price);\n            reputation[trade.seller]++;\n        } else {\n            payable(trade.buyer).transfer(trade.price);\n            reputation[trade.buyer]++;\n        }\n\n        payable(msg.sender).transfer(disputeDeposit); // Refund admin (or could burn deposit if needed)\n        emit DisputeResolved(_tradeId, favorSeller);\n    }\n\n    function timeoutTrade(uint _tradeId) external validTradeId(_tradeId) nonReentrant {\n        Trade storage trade = trades[_tradeId];\n        require(trade.isAccepted, \"Trade not accepted\");\n        require(!trade.isCompleted, \"Trade already completed\");\n        require(!trade.isDisputed, \"Cannot timeout disputed trade\");\n        require(block.timestamp > trade.timestamp + timeoutPeriod, \"Timeout period not reached\");\n\n        trade.isCompleted = true;\n\n        payable(trade.buyer).transfer(trade.price);\n        emit TradeTimedOut(_tradeId, trade.buyer);\n    }\n\n    function getAllTrades() external view returns (Trade[] memory) {\n        return trades;\n    }\n\n    function tradeCount() public view returns (uint) {\n        return trades.length;\n    }\n\n    function updateDisputeDeposit(uint _newAmount) external onlyOwner {\n        disputeDeposit = _newAmount;\n    }\n\n    function updateTimeoutPeriod(uint _seconds) external onlyOwner {\n        timeoutPeriod = _seconds;\n    }\n}",
  "sourcePath": "/Users/kavinantonyar/Projects/Innovision/contracts/EnergyTrade.sol",
  "compiler": {
    "name": "solc",
    "version": "0.8.0+commit.c7dfd78e.Emscripten.clang"
  },
  "schemaVersion": "3.4.16",
  "updatedAt": "2025-05-05T04:45:33.784Z",
  "networkType": "ethereum",
  "devdoc": {
    "kind": "dev",
    "methods": {},
    "version": 1
  },
  "userdoc": {
    "kind": "user",
    "methods": {},
    "version": 1
  }
}