{
  "contractName": "EnergyTrade",
  "abi": [
    {
      "inputs": [],
      "stateMutability": "nonpayable",
      "type": "constructor"
    },
    {
      "anonymous": false,
      "inputs": [
        {
          "indexed": true,
          "internalType": "uint256",
          "name": "tradeId",
          "type": "uint256"
        },
        {
          "indexed": false,
          "internalType": "bool",
          "name": "favorSeller",
          "type": "bool"
        }
      ],
      "name": "DisputeResolved",
      "type": "event"
    },
    {
      "anonymous": false,
      "inputs": [
        {
          "indexed": true,
          "internalType": "uint256",
          "name": "tradeId",
          "type": "uint256"
        },
        {
          "indexed": false,
          "internalType": "address",
          "name": "buyer",
          "type": "address"
        }
      ],
      "name": "TradeAccepted",
      "type": "event"
    },
    {
      "anonymous": false,
      "inputs": [
        {
          "indexed": true,
          "internalType": "uint256",
          "name": "tradeId",
          "type": "uint256"
        }
      ],
      "name": "TradeCancelled",
      "type": "event"
    },
    {
      "anonymous": false,
      "inputs": [
        {
          "indexed": true,
          "internalType": "uint256",
          "name": "tradeId",
          "type": "uint256"
        }
      ],
      "name": "TradeCompleted",
      "type": "event"
    },
    {
      "anonymous": false,
      "inputs": [
        {
          "indexed": true,
          "internalType": "uint256",
          "name": "tradeId",
          "type": "uint256"
        },
        {
          "indexed": false,
          "internalType": "address",
          "name": "seller",
          "type": "address"
        },
        {
          "indexed": false,
          "internalType": "uint256",
          "name": "energyAmount",
          "type": "uint256"
        },
        {
          "indexed": false,
          "internalType": "uint256",
          "name": "price",
          "type": "uint256"
        }
      ],
      "name": "TradeCreated",
      "type": "event"
    },
    {
      "anonymous": false,
      "inputs": [
        {
          "indexed": true,
          "internalType": "uint256",
          "name": "tradeId",
          "type": "uint256"
        }
      ],
      "name": "TradeDisputed",
      "type": "event"
    },
    {
      "anonymous": false,
      "inputs": [
        {
          "indexed": true,
          "internalType": "uint256",
          "name": "tradeId",
          "type": "uint256"
        },
        {
          "indexed": false,
          "internalType": "address",
          "name": "refundedTo",
          "type": "address"
        }
      ],
      "name": "TradeTimedOut",
      "type": "event"
    },
    {
      "inputs": [],
      "name": "disputeDeposit",
      "outputs": [
        {
          "internalType": "uint256",
          "name": "",
          "type": "uint256"
        }
      ],
      "stateMutability": "view",
      "type": "function",
      "constant": true
    },
    {
      "inputs": [
        {
          "internalType": "uint256",
          "name": "",
          "type": "uint256"
        }
      ],
      "name": "disputeDepositor",
      "outputs": [
        {
          "internalType": "address",
          "name": "",
          "type": "address"
        }
      ],
      "stateMutability": "view",
      "type": "function",
      "constant": true
    },
    {
      "inputs": [],
      "name": "owner",
      "outputs": [
        {
          "internalType": "address",
          "name": "",
          "type": "address"
        }
      ],
      "stateMutability": "view",
      "type": "function",
      "constant": true
    },
    {
      "inputs": [
        {
          "internalType": "address",
          "name": "",
          "type": "address"
        }
      ],
      "name": "reputation",
      "outputs": [
        {
          "internalType": "uint256",
          "name": "",
          "type": "uint256"
        }
      ],
      "stateMutability": "view",
      "type": "function",
      "constant": true
    },
    {
      "inputs": [],
      "name": "timeoutPeriod",
      "outputs": [
        {
          "internalType": "uint256",
          "name": "",
          "type": "uint256"
        }
      ],
      "stateMutability": "view",
      "type": "function",
      "constant": true
    },
    {
      "inputs": [
        {
          "internalType": "uint256",
          "name": "",
          "type": "uint256"
        }
      ],
      "name": "trades",
      "outputs": [
        {
          "internalType": "address",
          "name": "seller",
          "type": "address"
        },
        {
          "internalType": "address",
          "name": "buyer",
          "type": "address"
        },
        {
          "internalType": "uint256",
          "name": "energyAmount",
          "type": "uint256"
        },
        {
          "internalType": "uint256",
          "name": "price",
          "type": "uint256"
        },
        {
          "internalType": "uint256",
          "name": "timestamp",
          "type": "uint256"
        },
        {
          "internalType": "bool",
          "name": "isAccepted",
          "type": "bool"
        },
        {
          "internalType": "bool",
          "name": "isCompleted",
          "type": "bool"
        },
        {
          "internalType": "bool",
          "name": "isCancelled",
          "type": "bool"
        },
        {
          "internalType": "bool",
          "name": "isDisputed",
          "type": "bool"
        }
      ],
      "stateMutability": "view",
      "type": "function",
      "constant": true
    },
    {
      "stateMutability": "payable",
      "type": "receive",
      "payable": true
    },
    {
      "inputs": [
        {
          "internalType": "uint256",
          "name": "_energyAmount",
          "type": "uint256"
        },
        {
          "internalType": "uint256",
          "name": "_price",
          "type": "uint256"
        }
      ],
      "name": "createTrade",
      "outputs": [],
      "stateMutability": "nonpayable",
      "type": "function"
    },
    {
      "inputs": [
        {
          "internalType": "uint256",
          "name": "_tradeId",
          "type": "uint256"
        }
      ],
      "name": "acceptTrade",
      "outputs": [],
      "stateMutability": "payable",
      "type": "function",
      "payable": true
    },
    {
      "inputs": [
        {
          "internalType": "uint256",
          "name": "_tradeId",
          "type": "uint256"
        }
      ],
      "name": "completeTrade",
      "outputs": [],
      "stateMutability": "nonpayable",
      "type": "function"
    },
    {
      "inputs": [
        {
          "internalType": "uint256",
          "name": "_tradeId",
          "type": "uint256"
        }
      ],
      "name": "cancelTrade",
      "outputs": [],
      "stateMutability": "nonpayable",
      "type": "function"
    },
    {
      "inputs": [
        {
          "internalType": "uint256",
          "name": "_tradeId",
          "type": "uint256"
        }
      ],
      "name": "raiseDispute",
      "outputs": [],
      "stateMutability": "payable",
      "type": "function",
      "payable": true
    },
    {
      "inputs": [
        {
          "internalType": "uint256",
          "name": "_tradeId",
          "type": "uint256"
        },
        {
          "internalType": "bool",
          "name": "favorSeller",
          "type": "bool"
        }
      ],
      "name": "resolveDispute",
      "outputs": [],
      "stateMutability": "nonpayable",
      "type": "function"
    },
    {
      "inputs": [
        {
          "internalType": "uint256",
          "name": "_tradeId",
          "type": "uint256"
        }
      ],
      "name": "timeoutTrade",
      "outputs": [],
      "stateMutability": "nonpayable",
      "type": "function"
    },
    {
      "inputs": [],
      "name": "getAllTrades",
      "outputs": [
        {
          "components": [
            {
              "internalType": "address",
              "name": "seller",
              "type": "address"
            },
            {
              "internalType": "address",
              "name": "buyer",
              "type": "address"
            },
            {
              "internalType": "uint256",
              "name": "energyAmount",
              "type": "uint256"
            },
            {
              "internalType": "uint256",
              "name": "price",
              "type": "uint256"
            },
            {
              "internalType": "uint256",
              "name": "timestamp",
              "type": "uint256"
            },
            {
              "internalType": "bool",
              "name": "isAccepted",
              "type": "bool"
            },
            {
              "internalType": "bool",
              "name": "isCompleted",
              "type": "bool"
            },
            {
              "internalType": "bool",
              "name": "isCancelled",
              "type": "bool"
            },
            {
              "internalType": "bool",
              "name": "isDisputed",
              "type": "bool"
            }
          ],
          "internalType": "struct EnergyTrade.Trade[]",
          "name": "",
          "type": "tuple[]"
        }
      ],
      "stateMutability": "view",
      "type": "function",
      "constant": true
    },
    {
      "inputs": [],
      "name": "tradeCount",
      "outputs": [
        {
          "internalType": "uint256",
          "name": "",
          "type": "uint256"
        }
      ],
      "stateMutability": "view",
      "type": "function",
      "constant": true
    },
    {
      "inputs": [
        {
          "internalType": "uint256",
          "name": "_newAmount",
          "type": "uint256"
        }
      ],
      "name": "updateDisputeDeposit",
      "outputs": [],
      "stateMutability": "nonpayable",
      "type": "function"
    },
    {
      "inputs": [
        {
          "internalType": "uint256",
          "name": "_seconds",
          "type": "uint256"
        }
      ],
      "name": "updateTimeoutPeriod",
      "outputs": [],
      "stateMutability": "nonpayable",
      "type": "function"
    }
  ],
  "bytecode": "0x6080604052662386f26fc100006002556203f48060035534801561002257600080fd5b50600160008190555033600160006101000a81548173ffffffffffffffffffffffffffffffffffffffff021916908373ffffffffffffffffffffffffffffffffffffffff16021790555061310e8061007b6000396000f3fe6080604052600436106101025760003560e01c806396463fc611610095578063bd55022a11610064578063bd55022a1461035c578063ce99c0ce14610387578063d684d5b1146103b2578063e191ad17146103db578063ecb9fec31461041857610142565b806396463fc6146102b1578063a5c1674e146102da578063ad221551146102f6578063b9f794511461031f57610142565b80634ecbfd64116100d15780634ecbfd64146102095780636b5d4503146102325780636cea6b821461025b5780638da5cb5b1461028657610142565b806309ec6cc7146101475780631e6c598e1461017057806329e03ff1146101b557806334b25ee2146101e057610142565b36610142576040517f08c379a000000000000000000000000000000000000000000000000000000000815260040161013990612df9565b60405180910390fd5b600080fd5b34801561015357600080fd5b5061016e60048036038101906101699190612159565b610434565b005b34801561017c57600080fd5b5061019760048036038101906101929190612159565b61064d565b6040516101ac99989796959493929190612a98565b60405180910390f35b3480156101c157600080fd5b506101ca61071f565b6040516101d79190612ed9565b60405180910390f35b3480156101ec57600080fd5b5061020760048036038101906102029190612182565b610725565b005b34801561021557600080fd5b50610230600480360381019061022b9190612159565b610d74565b005b34801561023e57600080fd5b5061025960048036038101906102549190612159565b610e0e565b005b34801561026757600080fd5b50610270610ea8565b60405161027d9190612ed9565b60405180910390f35b34801561029257600080fd5b5061029b610eae565b6040516102a89190612a7d565b60405180910390f35b3480156102bd57600080fd5b506102d860048036038101906102d391906121be565b610ed4565b005b6102f460048036038101906102ef9190612159565b6110f8565b005b34801561030257600080fd5b5061031d60048036038101906103189190612159565b611462565b005b34801561032b57600080fd5b5061034660048036038101906103419190612130565b6118a3565b6040516103539190612ed9565b60405180910390f35b34801561036857600080fd5b506103716118bb565b60405161037e9190612ed9565b60405180910390f35b34801561039357600080fd5b5061039c6118c8565b6040516103a99190612b5c565b60405180910390f35b3480156103be57600080fd5b506103d960048036038101906103d49190612159565b611a5e565b005b3480156103e757600080fd5b5061040260048036038101906103fd9190612159565b611d9d565b60405161040f9190612a7d565b60405180910390f35b610432600480360381019061042d9190612159565b611dd0565b005b80600480549050811061047c576040517f08c379a000000000000000000000000000000000000000000000000000000000815260040161047390612d99565b60405180910390fd5b6000600483815481106104b8577f4e487b7100000000000000000000000000000000000000000000000000000000600052603260045260246000fd5b906000526020600020906006020190508060050160009054906101000a900460ff161561051a576040517f08c379a000000000000000000000000000000000000000000000000000000000815260040161051190612d19565b60405180910390fd5b8060050160019054906101000a900460ff161561056c576040517f08c379a000000000000000000000000000000000000000000000000000000000815260040161056390612d39565b60405180910390fd5b8060000160009054906101000a900473ffffffffffffffffffffffffffffffffffffffff1673ffffffffffffffffffffffffffffffffffffffff163373ffffffffffffffffffffffffffffffffffffffff16146105fe576040517f08c379a00000000000000000000000000000000000000000000000000000000081526004016105f590612cd9565b60405180910390fd5b60018160050160026101000a81548160ff021916908315150217905550827f4e02dcf02d8510f6c8a6878a3c54ae6e2bfbf552df29221d7a1eed173a6b1ae760405160405180910390a2505050565b6004818154811061065d57600080fd5b90600052602060002090600602016000915090508060000160009054906101000a900473ffffffffffffffffffffffffffffffffffffffff16908060010160009054906101000a900473ffffffffffffffffffffffffffffffffffffffff16908060020154908060030154908060040154908060050160009054906101000a900460ff16908060050160019054906101000a900460ff16908060050160029054906101000a900460ff16908060050160039054906101000a900460ff16905089565b60025481565b600160009054906101000a900473ffffffffffffffffffffffffffffffffffffffff1673ffffffffffffffffffffffffffffffffffffffff163373ffffffffffffffffffffffffffffffffffffffff16146107b5576040517f08c379a00000000000000000000000000000000000000000000000000000000081526004016107ac90612d59565b60405180910390fd5b8160048054905081106107fd576040517f08c379a00000000000000000000000000000000000000000000000000000000081526004016107f490612d99565b60405180910390fd5b610805612097565b600060048481548110610841577f4e487b7100000000000000000000000000000000000000000000000000000000600052603260045260246000fd5b906000526020600020906006020190508060050160039054906101000a900460ff166108a2576040517f08c379a000000000000000000000000000000000000000000000000000000000815260040161089990612dd9565b60405180910390fd5b8060050160019054906101000a900460ff16156108f4576040517f08c379a00000000000000000000000000000000000000000000000000000000081526004016108eb90612d39565b60405180910390fd5b60008160050160036101000a81548160ff02191690831515021790555060018160050160016101000a81548160ff0219169083151502179055508215610a875760008160000160009054906101000a900473ffffffffffffffffffffffffffffffffffffffff1673ffffffffffffffffffffffffffffffffffffffff16826003015460405161098290612a68565b60006040518083038185875af1925050503d80600081146109bf576040519150601f19603f3d011682016040523d82523d6000602084013e6109c4565b606091505b5050905080610a08576040517f08c379a00000000000000000000000000000000000000000000000000000000081526004016109ff90612cf9565b60405180910390fd5b600560008360000160009054906101000a900473ffffffffffffffffffffffffffffffffffffffff1673ffffffffffffffffffffffffffffffffffffffff1673ffffffffffffffffffffffffffffffffffffffff1681526020019081526020016000206000815480929190610a7c9061301b565b919050555050610bd6565b60008160010160009054906101000a900473ffffffffffffffffffffffffffffffffffffffff1673ffffffffffffffffffffffffffffffffffffffff168260030154604051610ad590612a68565b60006040518083038185875af1925050503d8060008114610b12576040519150601f19603f3d011682016040523d82523d6000602084013e610b17565b606091505b5050905080610b5b576040517f08c379a0000000000000000000000000000000000000000000000000000000008152600401610b5290612d79565b60405180910390fd5b600560008360010160009054906101000a900473ffffffffffffffffffffffffffffffffffffffff1673ffffffffffffffffffffffffffffffffffffffff1673ffffffffffffffffffffffffffffffffffffffff1681526020019081526020016000206000815480929190610bcf9061301b565b9190505550505b60006006600086815260200190815260200160002060009054906101000a900473ffffffffffffffffffffffffffffffffffffffff169050600073ffffffffffffffffffffffffffffffffffffffff168173ffffffffffffffffffffffffffffffffffffffff161415610c7e576040517f08c379a0000000000000000000000000000000000000000000000000000000008152600401610c7590612e39565b60405180910390fd5b60008173ffffffffffffffffffffffffffffffffffffffff16600254604051610ca690612a68565b60006040518083038185875af1925050503d8060008114610ce3576040519150601f19603f3d011682016040523d82523d6000602084013e610ce8565b606091505b5050905080610d2c576040517f08c379a0000000000000000000000000000000000000000000000000000000008152600401610d2390612e59565b60405180910390fd5b857f5a87909bff68caaaaf0b3fd9c74eeccc928832f879315e5c6fb7a73612f26c0c86604051610d5c9190612b7e565b60405180910390a2505050610d6f6120e7565b505050565b600160009054906101000a900473ffffffffffffffffffffffffffffffffffffffff1673ffffffffffffffffffffffffffffffffffffffff163373ffffffffffffffffffffffffffffffffffffffff1614610e04576040517f08c379a0000000000000000000000000000000000000000000000000000000008152600401610dfb90612d59565b60405180910390fd5b8060038190555050565b600160009054906101000a900473ffffffffffffffffffffffffffffffffffffffff1673ffffffffffffffffffffffffffffffffffffffff163373ffffffffffffffffffffffffffffffffffffffff1614610e9e576040517f08c379a0000000000000000000000000000000000000000000000000000000008152600401610e9590612d59565b60405180910390fd5b8060028190555050565b60035481565b600160009054906101000a900473ffffffffffffffffffffffffffffffffffffffff1681565b60046040518061012001604052803373ffffffffffffffffffffffffffffffffffffffff168152602001600073ffffffffffffffffffffffffffffffffffffffff16815260200184815260200183815260200142815260200160001515815260200160001515815260200160001515815260200160001515815250908060018154018082558091505060019003906000526020600020906006020160009091909190915060008201518160000160006101000a81548173ffffffffffffffffffffffffffffffffffffffff021916908373ffffffffffffffffffffffffffffffffffffffff16021790555060208201518160010160006101000a81548173ffffffffffffffffffffffffffffffffffffffff021916908373ffffffffffffffffffffffffffffffffffffffff16021790555060408201518160020155606082015181600301556080820151816004015560a08201518160050160006101000a81548160ff02191690831515021790555060c08201518160050160016101000a81548160ff02191690831515021790555060e08201518160050160026101000a81548160ff0219169083151502179055506101008201518160050160036101000a81548160ff021916908315150217905550505060016004805490506110b99190612f9f565b7fd0e9aa5556e03c447575bd31d7a883384c075015de0184785193f025fbfd54513384846040516110ec93929190612b25565b60405180910390a25050565b806004805490508110611140576040517f08c379a000000000000000000000000000000000000000000000000000000000815260040161113790612d99565b60405180910390fd5b611148612097565b600060048381548110611184577f4e487b7100000000000000000000000000000000000000000000000000000000600052603260045260246000fd5b906000526020600020906006020190508060050160009054906101000a900460ff166111e5576040517f08c379a00000000000000000000000000000000000000000000000000000000081526004016111dc90612b99565b60405180910390fd5b8060050160019054906101000a900460ff1615611237576040517f08c379a000000000000000000000000000000000000000000000000000000000815260040161122e90612d39565b60405180910390fd5b8060050160039054906101000a900460ff1615611289576040517f08c379a000000000000000000000000000000000000000000000000000000000815260040161128090612e79565b60405180910390fd5b8060000160009054906101000a900473ffffffffffffffffffffffffffffffffffffffff1673ffffffffffffffffffffffffffffffffffffffff163373ffffffffffffffffffffffffffffffffffffffff16148061133657508060010160009054906101000a900473ffffffffffffffffffffffffffffffffffffffff1673ffffffffffffffffffffffffffffffffffffffff163373ffffffffffffffffffffffffffffffffffffffff16145b611375576040517f08c379a000000000000000000000000000000000000000000000000000000000815260040161136c90612db9565b60405180910390fd5b60025434146113b9576040517f08c379a00000000000000000000000000000000000000000000000000000000081526004016113b090612eb9565b60405180910390fd5b60018160050160036101000a81548160ff021916908315150217905550336006600085815260200190815260200160002060006101000a81548173ffffffffffffffffffffffffffffffffffffffff021916908373ffffffffffffffffffffffffffffffffffffffff160217905550827f995328816eb12e50ec2691560298922cd9ead6191e59874ef2ef6ca8c766d72560405160405180910390a25061145e6120e7565b5050565b8060048054905081106114aa576040517f08c379a00000000000000000000000000000000000000000000000000000000081526004016114a190612d99565b60405180910390fd5b6114b2612097565b6000600483815481106114ee577f4e487b7100000000000000000000000000000000000000000000000000000000600052603260045260246000fd5b906000526020600020906006020190508060050160009054906101000a900460ff1661154f576040517f08c379a000000000000000000000000000000000000000000000000000000000815260040161154690612b99565b60405180910390fd5b8060050160019054906101000a900460ff16156115a1576040517f08c379a000000000000000000000000000000000000000000000000000000000815260040161159890612d39565b60405180910390fd5b8060050160039054906101000a900460ff16156115f3576040517f08c379a00000000000000000000000000000000000000000000000000000000081526004016115ea90612c99565b60405180910390fd5b8060010160009054906101000a900473ffffffffffffffffffffffffffffffffffffffff1673ffffffffffffffffffffffffffffffffffffffff163373ffffffffffffffffffffffffffffffffffffffff1614611685576040517f08c379a000000000000000000000000000000000000000000000000000000000815260040161167c90612e99565b60405180910390fd5b60018160050160016101000a81548160ff02191690831515021790555060008160000160009054906101000a900473ffffffffffffffffffffffffffffffffffffffff1673ffffffffffffffffffffffffffffffffffffffff1682600301546040516116f090612a68565b60006040518083038185875af1925050503d806000811461172d576040519150601f19603f3d011682016040523d82523d6000602084013e611732565b606091505b5050905080611776576040517f08c379a000000000000000000000000000000000000000000000000000000000815260040161176d90612bb9565b60405180910390fd5b600560008360000160009054906101000a900473ffffffffffffffffffffffffffffffffffffffff1673ffffffffffffffffffffffffffffffffffffffff1673ffffffffffffffffffffffffffffffffffffffff16815260200190815260200160002060008154809291906117ea9061301b565b9190505550600560008360010160009054906101000a900473ffffffffffffffffffffffffffffffffffffffff1673ffffffffffffffffffffffffffffffffffffffff1673ffffffffffffffffffffffffffffffffffffffff16815260200190815260200160002060008154809291906118639061301b565b9190505550837f60f91a26281f20fb528663f4da55773c83e2ee8a7a5dddb6d1753749e81dc49b60405160405180910390a2505061189f6120e7565b5050565b60056020528060005260406000206000915090505481565b6000600480549050905090565b60606004805480602002602001604051908101604052809291908181526020016000905b82821015611a555783829060005260206000209060060201604051806101200160405290816000820160009054906101000a900473ffffffffffffffffffffffffffffffffffffffff1673ffffffffffffffffffffffffffffffffffffffff1673ffffffffffffffffffffffffffffffffffffffff1681526020016001820160009054906101000a900473ffffffffffffffffffffffffffffffffffffffff1673ffffffffffffffffffffffffffffffffffffffff1673ffffffffffffffffffffffffffffffffffffffff1681526020016002820154815260200160038201548152602001600482015481526020016005820160009054906101000a900460ff161515151581526020016005820160019054906101000a900460ff161515151581526020016005820160029054906101000a900460ff161515151581526020016005820160039054906101000a900460ff161515151581525050815260200190600101906118ec565b50505050905090565b806004805490508110611aa6576040517f08c379a0000000000000000000000000000000000000000000000000000000008152600401611a9d90612d99565b60405180910390fd5b611aae612097565b600060048381548110611aea577f4e487b7100000000000000000000000000000000000000000000000000000000600052603260045260246000fd5b906000526020600020906006020190508060050160009054906101000a900460ff16611b4b576040517f08c379a0000000000000000000000000000000000000000000000000000000008152600401611b4290612b99565b60405180910390fd5b8060050160019054906101000a900460ff1615611b9d576040517f08c379a0000000000000000000000000000000000000000000000000000000008152600401611b9490612d39565b60405180910390fd5b8060050160039054906101000a900460ff1615611bef576040517f08c379a0000000000000000000000000000000000000000000000000000000008152600401611be690612bf9565b60405180910390fd5b6003548160040154611c019190612f49565b4211611c42576040517f08c379a0000000000000000000000000000000000000000000000000000000008152600401611c3990612c79565b60405180910390fd5b60018160050160016101000a81548160ff02191690831515021790555060008160010160009054906101000a900473ffffffffffffffffffffffffffffffffffffffff1673ffffffffffffffffffffffffffffffffffffffff168260030154604051611cad90612a68565b60006040518083038185875af1925050503d8060008114611cea576040519150601f19603f3d011682016040523d82523d6000602084013e611cef565b606091505b5050905080611d33576040517f08c379a0000000000000000000000000000000000000000000000000000000008152600401611d2a90612c19565b60405180910390fd5b837f46de320d676aeb5b2785472a2443b0a093f8c64587b731b22c0ec2e9f15d50ea8360010160009054906101000a900473ffffffffffffffffffffffffffffffffffffffff16604051611d879190612a7d565b60405180910390a25050611d996120e7565b5050565b60066020528060005260406000206000915054906101000a900473ffffffffffffffffffffffffffffffffffffffff1681565b806004805490508110611e18576040517f08c379a0000000000000000000000000000000000000000000000000000000008152600401611e0f90612d99565b60405180910390fd5b611e20612097565b600060048381548110611e5c577f4e487b7100000000000000000000000000000000000000000000000000000000600052603260045260246000fd5b906000526020600020906006020190508060050160029054906101000a900460ff1615611ebe576040517f08c379a0000000000000000000000000000000000000000000000000000000008152600401611eb590612c39565b60405180910390fd5b8060050160009054906101000a900460ff1615611f10576040517f08c379a0000000000000000000000000000000000000000000000000000000008152600401611f0790612cb9565b60405180910390fd5b80600301543414611f56576040517f08c379a0000000000000000000000000000000000000000000000000000000008152600401611f4d90612c59565b60405180910390fd5b8060000160009054906101000a900473ffffffffffffffffffffffffffffffffffffffff1673ffffffffffffffffffffffffffffffffffffffff163373ffffffffffffffffffffffffffffffffffffffff161415611fe9576040517f08c379a0000000000000000000000000000000000000000000000000000000008152600401611fe090612bd9565b60405180910390fd5b338160010160006101000a81548173ffffffffffffffffffffffffffffffffffffffff021916908373ffffffffffffffffffffffffffffffffffffffff16021790555060018160050160006101000a81548160ff021916908315150217905550428160040181905550827f1fd578df323ef0e509ae001513c11d6327b80411be93b9be04e4100e63871351336040516120829190612a7d565b60405180910390a2506120936120e7565b5050565b600260005414156120dd576040517f08c379a00000000000000000000000000000000000000000000000000000000081526004016120d490612e19565b60405180910390fd5b6002600081905550565b6001600081905550565b60008135905061210081613093565b92915050565b600081359050612115816130aa565b92915050565b60008135905061212a816130c1565b92915050565b60006020828403121561214257600080fd5b6000612150848285016120f1565b91505092915050565b60006020828403121561216b57600080fd5b60006121798482850161211b565b91505092915050565b6000806040838503121561219557600080fd5b60006121a38582860161211b565b92505060206121b485828601612106565b9150509250929050565b600080604083850312156121d157600080fd5b60006121df8582860161211b565b92505060206121f08582860161211b565b9150509250929050565b60006122068383612993565b6101208301905092915050565b61221c81612fd3565b82525050565b61222b81612fd3565b82525050565b600061223c82612f04565b6122468185612f1c565b935061225183612ef4565b8060005b8381101561228257815161226988826121fa565b975061227483612f0f565b925050600181019050612255565b5085935050505092915050565b61229881612fe5565b82525050565b6122a781612fe5565b82525050565b60006122ba601283612f38565b91507f5472616465206e6f7420616363657074656400000000000000000000000000006000830152602082019050919050565b60006122fa601883612f38565b91507f5061796d656e7420746f2073656c6c6572206661696c656400000000000000006000830152602082019050919050565b600061233a601683612f38565b91507f53656c6c65722063616e6e6f74206265206275796572000000000000000000006000830152602082019050919050565b600061237a601383612f38565b91507f547261646520697320696e2064697370757465000000000000000000000000006000830152602082019050919050565b60006123ba601683612f38565b91507f526566756e6420746f206275796572206661696c6564000000000000000000006000830152602082019050919050565b60006123fa601283612f38565b91507f54726164652069732063616e63656c6c656400000000000000000000000000006000830152602082019050919050565b600061243a601883612f38565b91507f496e636f7272656374207061796d656e7420616d6f756e7400000000000000006000830152602082019050919050565b600061247a601a83612f38565b91507f54696d656f757420706572696f64206e6f7420726561636865640000000000006000830152602082019050919050565b60006124ba601183612f38565b91507f54726164652069732064697370757465640000000000000000000000000000006000830152602082019050919050565b60006124fa601683612f38565b91507f547261646520616c7265616479206163636570746564000000000000000000006000830152602082019050919050565b600061253a601683612f38565b91507f4f6e6c792073656c6c65722063616e2063616e63656c000000000000000000006000830152602082019050919050565b600061257a601983612f38565b91507f5472616e7366657220746f2073656c6c6572206661696c6564000000000000006000830152602082019050919050565b60006125ba601e83612f38565b91507f43616e6e6f742063616e63656c20616674657220616363657074616e636500006000830152602082019050919050565b60006125fa601783612f38565b91507f547261646520616c726561647920636f6d706c657465640000000000000000006000830152602082019050919050565b600061263a602283612f38565b91507f4f6e6c792061646d696e2063616e20706572666f726d2074686973206163746960008301527f6f6e0000000000000000000000000000000000000000000000000000000000006020830152604082019050919050565b60006126a0600083612f2d565b9150600082019050919050565b60006126ba601883612f38565b91507f5472616e7366657220746f206275796572206661696c656400000000000000006000830152602082019050919050565b60006126fa601083612f38565b91507f496e76616c6964207472616465204944000000000000000000000000000000006000830152602082019050919050565b600061273a601d83612f38565b91507f4f6e6c79207061727469636970616e74732063616e20646973707574650000006000830152602082019050919050565b600061277a601183612f38565b91507f4e6f2061637469766520646973707574650000000000000000000000000000006000830152602082019050919050565b60006127ba601f83612f38565b91507f44697265637420455448207472616e73666572206e6f7420616c6c6f776564006000830152602082019050919050565b60006127fa601f83612f38565b91507f5265656e7472616e637947756172643a207265656e7472616e742063616c6c006000830152602082019050919050565b600061283a601383612f38565b91507f4e6f206465706f736974207265636f72646564000000000000000000000000006000830152602082019050919050565b600061287a602083612f38565b91507f526566756e64206f662064697370757465206465706f736974206661696c65646000830152602082019050919050565b60006128ba601683612f38565b91507f547261646520616c7265616479206469737075746564000000000000000000006000830152602082019050919050565b60006128fa602183612f38565b91507f4f6e6c792062757965722063616e20636f6e6669726d20636f6d706c6574696f60008301527f6e000000000000000000000000000000000000000000000000000000000000006020830152604082019050919050565b6000612960601983612f38565b91507f496e636f72726563742064697370757465206465706f736974000000000000006000830152602082019050919050565b610120820160008201516129aa6000850182612213565b5060208201516129bd6020850182612213565b5060408201516129d06040850182612a4a565b5060608201516129e36060850182612a4a565b5060808201516129f66080850182612a4a565b5060a0820151612a0960a085018261228f565b5060c0820151612a1c60c085018261228f565b5060e0820151612a2f60e085018261228f565b50610100820151612a4461010085018261228f565b50505050565b612a5381613011565b82525050565b612a6281613011565b82525050565b6000612a7382612693565b9150819050919050565b6000602082019050612a926000830184612222565b92915050565b600061012082019050612aae600083018c612222565b612abb602083018b612222565b612ac8604083018a612a59565b612ad56060830189612a59565b612ae26080830188612a59565b612aef60a083018761229e565b612afc60c083018661229e565b612b0960e083018561229e565b612b1761010083018461229e565b9a9950505050505050505050565b6000606082019050612b3a6000830186612222565b612b476020830185612a59565b612b546040830184612a59565b949350505050565b60006020820190508181036000830152612b768184612231565b905092915050565b6000602082019050612b93600083018461229e565b92915050565b60006020820190508181036000830152612bb2816122ad565b9050919050565b60006020820190508181036000830152612bd2816122ed565b9050919050565b60006020820190508181036000830152612bf28161232d565b9050919050565b60006020820190508181036000830152612c128161236d565b9050919050565b60006020820190508181036000830152612c32816123ad565b9050919050565b60006020820190508181036000830152612c52816123ed565b9050919050565b60006020820190508181036000830152612c728161242d565b9050919050565b60006020820190508181036000830152612c928161246d565b9050919050565b60006020820190508181036000830152612cb2816124ad565b9050919050565b60006020820190508181036000830152612cd2816124ed565b9050919050565b60006020820190508181036000830152612cf28161252d565b9050919050565b60006020820190508181036000830152612d128161256d565b9050919050565b60006020820190508181036000830152612d32816125ad565b9050919050565b60006020820190508181036000830152612d52816125ed565b9050919050565b60006020820190508181036000830152612d728161262d565b9050919050565b60006020820190508181036000830152612d92816126ad565b9050919050565b60006020820190508181036000830152612db2816126ed565b9050919050565b60006020820190508181036000830152612dd28161272d565b9050919050565b60006020820190508181036000830152612df28161276d565b9050919050565b60006020820190508181036000830152612e12816127ad565b9050919050565b60006020820190508181036000830152612e32816127ed565b9050919050565b60006020820190508181036000830152612e528161282d565b9050919050565b60006020820190508181036000830152612e728161286d565b9050919050565b60006020820190508181036000830152612e92816128ad565b9050919050565b60006020820190508181036000830152612eb2816128ed565b9050919050565b60006020820190508181036000830152612ed281612953565b9050919050565b6000602082019050612eee6000830184612a59565b92915050565b6000819050602082019050919050565b600081519050919050565b6000602082019050919050565b600082825260208201905092915050565b600081905092915050565b600082825260208201905092915050565b6000612f5482613011565b9150612f5f83613011565b9250827fffffffffffffffffffffffffffffffffffffffffffffffffffffffffffffffff03821115612f9457612f93613064565b5b828201905092915050565b6000612faa82613011565b9150612fb583613011565b925082821015612fc857612fc7613064565b5b828203905092915050565b6000612fde82612ff1565b9050919050565b60008115159050919050565b600073ffffffffffffffffffffffffffffffffffffffff82169050919050565b6000819050919050565b600061302682613011565b91507fffffffffffffffffffffffffffffffffffffffffffffffffffffffffffffffff82141561305957613058613064565b5b600182019050919050565b7f4e487b7100000000000000000000000000000000000000000000000000000000600052601160045260246000fd5b61309c81612fd3565b81146130a757600080fd5b50565b6130b381612fe5565b81146130be57600080fd5b50565b6130ca81613011565b81146130d557600080fd5b5056fea26469706673582212200ff7824efc7d630abeb7e1e3709358a4578f11b81a82012291c7c1d4a50a959364736f6c63430008000033",
  "immutableReferences": {},
  "source": "// SPDX-License-Identifier: MIT\npragma solidity ^0.8.0;\n\nimport \"@openzeppelin/contracts/security/ReentrancyGuard.sol\";\n\ncontract EnergyTrade is ReentrancyGuard {\n    address public owner;\n    uint256 public disputeDeposit = 0.01 ether;\n    uint256 public timeoutPeriod = 3 days;\n\n    struct Trade {\n        address seller;\n        address buyer;\n        uint256 energyAmount; // in kWh\n        uint256 price; // in wei\n        uint256 timestamp;\n        bool isAccepted;\n        bool isCompleted;\n        bool isCancelled;\n        bool isDisputed;\n    }\n\n    Trade[] public trades;\n    mapping(address => uint256) public reputation;\n    mapping(uint => address) public disputeDepositor;\n\n    modifier onlyOwner() {\n        require(msg.sender == owner, \"Only admin can perform this action\");\n        _;\n    }\n\n    modifier validTradeId(uint _tradeId) {\n        require(_tradeId < trades.length, \"Invalid trade ID\");\n        _;\n    }\n\n    event TradeCreated(uint indexed tradeId, address seller, uint energyAmount, uint price);\n    event TradeAccepted(uint indexed tradeId, address buyer);\n    event TradeCompleted(uint indexed tradeId);\n    event TradeCancelled(uint indexed tradeId);\n    event TradeDisputed(uint indexed tradeId);\n    event DisputeResolved(uint indexed tradeId, bool favorSeller);\n    event TradeTimedOut(uint indexed tradeId, address refundedTo);\n\n    constructor() {\n        owner = msg.sender;\n    }\n\n    receive() external payable {\n        revert(\"Direct ETH transfer not allowed\");\n    }\n\n    function createTrade(uint256 _energyAmount, uint256 _price) external {\n        trades.push(Trade({\n            seller: msg.sender,\n            buyer: address(0),\n            energyAmount: _energyAmount,\n            price: _price,\n            timestamp: block.timestamp,\n            isAccepted: false,\n            isCompleted: false,\n            isCancelled: false,\n            isDisputed: false\n        }));\n\n        emit TradeCreated(trades.length - 1, msg.sender, _energyAmount, _price);\n    }\n\n    function acceptTrade(uint _tradeId) external payable validTradeId(_tradeId) nonReentrant {\n        Trade storage trade = trades[_tradeId];\n        require(!trade.isCancelled, \"Trade is cancelled\");\n        require(!trade.isAccepted, \"Trade already accepted\");\n        require(msg.value == trade.price, \"Incorrect payment amount\");\n        require(msg.sender != trade.seller, \"Seller cannot be buyer\");\n\n        trade.buyer = msg.sender;\n        trade.isAccepted = true;\n        trade.timestamp = block.timestamp;\n\n        emit TradeAccepted(_tradeId, msg.sender);\n    }\n\n    function completeTrade(uint _tradeId) external validTradeId(_tradeId) nonReentrant {\n        Trade storage trade = trades[_tradeId];\n        require(trade.isAccepted, \"Trade not accepted\");\n        require(!trade.isCompleted, \"Trade already completed\");\n        require(!trade.isDisputed, \"Trade is disputed\");\n        require(msg.sender == trade.buyer, \"Only buyer can confirm completion\");\n\n        trade.isCompleted = true;\n\n        (bool sent, ) = trade.seller.call{value: trade.price}(\"\");\n        require(sent, \"Payment to seller failed\");\n\n        reputation[trade.seller]++;\n        reputation[trade.buyer]++;\n\n        emit TradeCompleted(_tradeId);\n    }\n\n    function cancelTrade(uint _tradeId) external validTradeId(_tradeId) {\n        Trade storage trade = trades[_tradeId];\n        require(!trade.isAccepted, \"Cannot cancel after acceptance\");\n        require(!trade.isCompleted, \"Trade already completed\");\n        require(msg.sender == trade.seller, \"Only seller can cancel\");\n\n        trade.isCancelled = true;\n\n        emit TradeCancelled(_tradeId);\n    }\n\n    function raiseDispute(uint _tradeId) external payable validTradeId(_tradeId) nonReentrant {\n        Trade storage trade = trades[_tradeId];\n        require(trade.isAccepted, \"Trade not accepted\");\n        require(!trade.isCompleted, \"Trade already completed\");\n        require(!trade.isDisputed, \"Trade already disputed\");\n        require(msg.sender == trade.seller || msg.sender == trade.buyer, \"Only participants can dispute\");\n        require(msg.value == disputeDeposit, \"Incorrect dispute deposit\");\n\n        trade.isDisputed = true;\n        disputeDepositor[_tradeId] = msg.sender;\n\n        emit TradeDisputed(_tradeId);\n    }\n\n    function resolveDispute(uint _tradeId, bool favorSeller) external onlyOwner validTradeId(_tradeId) nonReentrant {\n        Trade storage trade = trades[_tradeId];\n        require(trade.isDisputed, \"No active dispute\");\n        require(!trade.isCompleted, \"Trade already completed\");\n\n        trade.isDisputed = false;\n        trade.isCompleted = true;\n\n        if (favorSeller) {\n            (bool sentSeller, ) = trade.seller.call{value: trade.price}(\"\");\n            require(sentSeller, \"Transfer to seller failed\");\n            reputation[trade.seller]++;\n        } else {\n            (bool sentBuyer, ) = trade.buyer.call{value: trade.price}(\"\");\n            require(sentBuyer, \"Transfer to buyer failed\");\n            reputation[trade.buyer]++;\n        }\n\n        address depositor = disputeDepositor[_tradeId];\n        require(depositor != address(0), \"No deposit recorded\");\n\n        (bool refunded, ) = depositor.call{value: disputeDeposit}(\"\");\n        require(refunded, \"Refund of dispute deposit failed\");\n\n        emit DisputeResolved(_tradeId, favorSeller);\n    }\n\n    function timeoutTrade(uint _tradeId) external validTradeId(_tradeId) nonReentrant {\n        Trade storage trade = trades[_tradeId];\n        require(trade.isAccepted, \"Trade not accepted\");\n        require(!trade.isCompleted, \"Trade already completed\");\n        require(!trade.isDisputed, \"Trade is in dispute\");\n        require(block.timestamp > trade.timestamp + timeoutPeriod, \"Timeout period not reached\");\n\n        trade.isCompleted = true;\n\n        (bool refunded, ) = trade.buyer.call{value: trade.price}(\"\");\n        require(refunded, \"Refund to buyer failed\");\n\n        emit TradeTimedOut(_tradeId, trade.buyer);\n    }\n\n    // View and Admin Functions\n\n    function getAllTrades() external view returns (Trade[] memory) {\n        return trades;\n    }\n\n    function tradeCount() public view returns (uint) {\n        return trades.length;\n    }\n\n    function updateDisputeDeposit(uint _newAmount) external onlyOwner {\n        disputeDeposit = _newAmount;\n    }\n\n    function updateTimeoutPeriod(uint _seconds) external onlyOwner {\n        timeoutPeriod = _seconds;\n    }\n}",
  "sourcePath": "/Users/kavinantonyar/Projects/Innovision/contracts/EnergyTrade.sol",
  "compiler": {
    "name": "solc",
    "version": "0.8.0+commit.c7dfd78e.Emscripten.clang"
  },
  "schemaVersion": "3.4.16",
  "updatedAt": "2025-05-05T07:40:27.098Z",
  "networkType": "ethereum",
  "devdoc": {
    "kind": "dev",
    "methods": {},
    "version": 1
  },
  "userdoc": {
    "kind": "user",
    "methods": {},
    "version": 1
  }
}